{
  "address": "0xE56E6fDB37Da4C6d8Ea9f00E777ba6a565252307",
  "abi": [
    {
      "inputs": [],
      "name": "Mintpeg__InvalidRoyaltyInfo",
      "type": "error"
    },
    {
      "inputs": [],
      "name": "Mintpeg__InvalidTokenOwner",
      "type": "error"
    },
    {
      "anonymous": false,
      "inputs": [
        {
          "indexed": true,
          "internalType": "address",
          "name": "owner",
          "type": "address"
        },
        {
          "indexed": true,
          "internalType": "address",
          "name": "approved",
          "type": "address"
        },
        {
          "indexed": true,
          "internalType": "uint256",
          "name": "tokenId",
          "type": "uint256"
        }
      ],
      "name": "Approval",
      "type": "event"
    },
    {
      "anonymous": false,
      "inputs": [
        {
          "indexed": true,
          "internalType": "address",
          "name": "owner",
          "type": "address"
        },
        {
          "indexed": true,
          "internalType": "address",
          "name": "operator",
          "type": "address"
        },
        {
          "indexed": false,
          "internalType": "bool",
          "name": "approved",
          "type": "bool"
        }
      ],
      "name": "ApprovalForAll",
      "type": "event"
    },
    {
      "anonymous": false,
      "inputs": [
        {
          "indexed": false,
          "internalType": "uint8",
          "name": "version",
          "type": "uint8"
        }
      ],
      "name": "Initialized",
      "type": "event"
    },
    {
      "anonymous": false,
      "inputs": [
        {
          "indexed": true,
          "internalType": "string",
          "name": "_collectionName",
          "type": "string"
        },
        {
          "indexed": true,
          "internalType": "string",
          "name": "_collectionSymbol",
          "type": "string"
        },
        {
          "indexed": true,
          "internalType": "address",
          "name": "_projectOwner",
          "type": "address"
        },
        {
          "indexed": false,
          "internalType": "address",
          "name": "_royaltyReceiver",
          "type": "address"
        },
        {
          "indexed": false,
          "internalType": "uint96",
          "name": "_feePercent",
          "type": "uint96"
        }
      ],
      "name": "InitializedMintpeg",
      "type": "event"
    },
    {
      "anonymous": false,
      "inputs": [
        {
          "indexed": true,
          "internalType": "address",
          "name": "previousOwner",
          "type": "address"
        },
        {
          "indexed": true,
          "internalType": "address",
          "name": "newOwner",
          "type": "address"
        }
      ],
      "name": "OwnershipTransferred",
      "type": "event"
    },
    {
      "anonymous": false,
      "inputs": [
        {
          "indexed": true,
          "internalType": "address",
          "name": "royaltyReceiver",
          "type": "address"
        },
        {
          "indexed": false,
          "internalType": "uint96",
          "name": "feePercent",
          "type": "uint96"
        }
      ],
      "name": "RoyaltyInfoChanged",
      "type": "event"
    },
    {
      "anonymous": false,
      "inputs": [
        {
          "indexed": false,
          "internalType": "uint256",
          "name": "tokenId",
          "type": "uint256"
        },
        {
          "indexed": true,
          "internalType": "address",
          "name": "royaltyReceiver",
          "type": "address"
        },
        {
          "indexed": false,
          "internalType": "uint96",
          "name": "feePercent",
          "type": "uint96"
        }
      ],
      "name": "TokenRoyaltyInfoChanged",
      "type": "event"
    },
    {
      "anonymous": false,
      "inputs": [
        {
          "indexed": true,
          "internalType": "address",
          "name": "from",
          "type": "address"
        },
        {
          "indexed": true,
          "internalType": "address",
          "name": "to",
          "type": "address"
        },
        {
          "indexed": true,
          "internalType": "uint256",
          "name": "tokenId",
          "type": "uint256"
        }
      ],
      "name": "Transfer",
      "type": "event"
    },
    {
      "inputs": [
        {
          "internalType": "address",
          "name": "to",
          "type": "address"
        },
        {
          "internalType": "uint256",
          "name": "tokenId",
          "type": "uint256"
        }
      ],
      "name": "approve",
      "outputs": [],
      "stateMutability": "nonpayable",
      "type": "function"
    },
    {
      "inputs": [
        {
          "internalType": "address",
          "name": "owner",
          "type": "address"
        }
      ],
      "name": "balanceOf",
      "outputs": [
        {
          "internalType": "uint256",
          "name": "",
          "type": "uint256"
        }
      ],
      "stateMutability": "view",
      "type": "function"
    },
    {
      "inputs": [
        {
          "internalType": "uint256",
          "name": "_tokenId",
          "type": "uint256"
        }
      ],
      "name": "burn",
      "outputs": [],
      "stateMutability": "nonpayable",
      "type": "function"
    },
    {
      "inputs": [
        {
          "internalType": "uint256",
          "name": "tokenId",
          "type": "uint256"
        }
      ],
      "name": "getApproved",
      "outputs": [
        {
          "internalType": "address",
          "name": "",
          "type": "address"
        }
      ],
      "stateMutability": "view",
      "type": "function"
    },
    {
      "inputs": [
        {
          "internalType": "string",
          "name": "_collectionName",
          "type": "string"
        },
        {
          "internalType": "string",
          "name": "_collectionSymbol",
          "type": "string"
        },
        {
          "internalType": "address",
          "name": "_projectOwner",
          "type": "address"
        },
        {
          "internalType": "address",
          "name": "_royaltyReceiver",
          "type": "address"
        },
        {
          "internalType": "uint96",
          "name": "_feePercent",
          "type": "uint96"
        }
      ],
      "name": "initialize",
      "outputs": [],
      "stateMutability": "nonpayable",
      "type": "function"
    },
    {
      "inputs": [
        {
          "internalType": "address",
          "name": "owner",
          "type": "address"
        },
        {
          "internalType": "address",
          "name": "operator",
          "type": "address"
        }
      ],
      "name": "isApprovedForAll",
      "outputs": [
        {
          "internalType": "bool",
          "name": "",
          "type": "bool"
        }
      ],
      "stateMutability": "view",
      "type": "function"
    },
    {
      "inputs": [
        {
          "internalType": "string[]",
          "name": "_tokenURIs",
          "type": "string[]"
        }
      ],
      "name": "mint",
      "outputs": [],
      "stateMutability": "nonpayable",
      "type": "function"
    },
    {
      "inputs": [],
      "name": "name",
      "outputs": [
        {
          "internalType": "string",
          "name": "",
          "type": "string"
        }
      ],
      "stateMutability": "view",
      "type": "function"
    },
    {
      "inputs": [],
      "name": "owner",
      "outputs": [
        {
          "internalType": "address",
          "name": "",
          "type": "address"
        }
      ],
      "stateMutability": "view",
      "type": "function"
    },
    {
      "inputs": [
        {
          "internalType": "uint256",
          "name": "tokenId",
          "type": "uint256"
        }
      ],
      "name": "ownerOf",
      "outputs": [
        {
          "internalType": "address",
          "name": "",
          "type": "address"
        }
      ],
      "stateMutability": "view",
      "type": "function"
    },
    {
      "inputs": [],
      "name": "renounceOwnership",
      "outputs": [],
      "stateMutability": "nonpayable",
      "type": "function"
    },
    {
      "inputs": [
        {
          "internalType": "uint256",
          "name": "_tokenId",
          "type": "uint256"
        },
        {
          "internalType": "uint256",
          "name": "_salePrice",
          "type": "uint256"
        }
      ],
      "name": "royaltyInfo",
      "outputs": [
        {
          "internalType": "address",
          "name": "",
          "type": "address"
        },
        {
          "internalType": "uint256",
          "name": "",
          "type": "uint256"
        }
      ],
      "stateMutability": "view",
      "type": "function"
    },
    {
      "inputs": [
        {
          "internalType": "address",
          "name": "from",
          "type": "address"
        },
        {
          "internalType": "address",
          "name": "to",
          "type": "address"
        },
        {
          "internalType": "uint256",
          "name": "tokenId",
          "type": "uint256"
        }
      ],
      "name": "safeTransferFrom",
      "outputs": [],
      "stateMutability": "nonpayable",
      "type": "function"
    },
    {
      "inputs": [
        {
          "internalType": "address",
          "name": "from",
          "type": "address"
        },
        {
          "internalType": "address",
          "name": "to",
          "type": "address"
        },
        {
          "internalType": "uint256",
          "name": "tokenId",
          "type": "uint256"
        },
        {
          "internalType": "bytes",
          "name": "data",
          "type": "bytes"
        }
      ],
      "name": "safeTransferFrom",
      "outputs": [],
      "stateMutability": "nonpayable",
      "type": "function"
    },
    {
      "inputs": [
        {
          "internalType": "address",
          "name": "operator",
          "type": "address"
        },
        {
          "internalType": "bool",
          "name": "approved",
          "type": "bool"
        }
      ],
      "name": "setApprovalForAll",
      "outputs": [],
      "stateMutability": "nonpayable",
      "type": "function"
    },
    {
      "inputs": [
        {
          "internalType": "address",
          "name": "_royaltyReceiver",
          "type": "address"
        },
        {
          "internalType": "uint96",
          "name": "_feePercent",
          "type": "uint96"
        }
      ],
      "name": "setRoyaltyInfo",
      "outputs": [],
      "stateMutability": "nonpayable",
      "type": "function"
    },
    {
      "inputs": [
        {
          "internalType": "uint256",
          "name": "_tokenId",
          "type": "uint256"
        },
        {
          "internalType": "address",
          "name": "_royaltyReceiver",
          "type": "address"
        },
        {
          "internalType": "uint96",
          "name": "_feePercent",
          "type": "uint96"
        }
      ],
      "name": "setTokenRoyaltyInfo",
      "outputs": [],
      "stateMutability": "nonpayable",
      "type": "function"
    },
    {
      "inputs": [
        {
          "internalType": "bytes4",
          "name": "_interfaceId",
          "type": "bytes4"
        }
      ],
      "name": "supportsInterface",
      "outputs": [
        {
          "internalType": "bool",
          "name": "",
          "type": "bool"
        }
      ],
      "stateMutability": "view",
      "type": "function"
    },
    {
      "inputs": [],
      "name": "symbol",
      "outputs": [
        {
          "internalType": "string",
          "name": "",
          "type": "string"
        }
      ],
      "stateMutability": "view",
      "type": "function"
    },
    {
      "inputs": [
        {
          "internalType": "uint256",
          "name": "tokenId",
          "type": "uint256"
        }
      ],
      "name": "tokenURI",
      "outputs": [
        {
          "internalType": "string",
          "name": "",
          "type": "string"
        }
      ],
      "stateMutability": "view",
      "type": "function"
    },
    {
      "inputs": [
        {
          "internalType": "address",
          "name": "from",
          "type": "address"
        },
        {
          "internalType": "address",
          "name": "to",
          "type": "address"
        },
        {
          "internalType": "uint256",
          "name": "tokenId",
          "type": "uint256"
        }
      ],
      "name": "transferFrom",
      "outputs": [],
      "stateMutability": "nonpayable",
      "type": "function"
    },
    {
      "inputs": [
        {
          "internalType": "address",
          "name": "newOwner",
          "type": "address"
        }
      ],
      "name": "transferOwnership",
      "outputs": [],
      "stateMutability": "nonpayable",
      "type": "function"
    }
  ],
  "transactionHash": "0x4ea330c9d21d045c9fe130fa11f9e8fc1fb25349589aec68f8a460c237042842",
  "args": [],
  "numDeployments": 1,
  "solcInputHash": "4ef253e0f4ddd865f670a6d1e90bc1e2",
  "bytecode": "0x608060405234801561001057600080fd5b50614142806100206000396000f3fe608060405234801561001057600080fd5b50600436106101425760003560e01c806370a08231116100b8578063afef7c041161007c578063afef7c0414610360578063b88d4fde1461037c578063b8f7300314610398578063c87b56dd146103b4578063e985e9c5146103e4578063f2fde38b1461041457610142565b806370a08231146102ce578063715018a6146102fe5780638da5cb5b1461030857806395d89b4114610326578063a22cb4651461034457610142565b806323b872dd1161010a57806323b872dd146101fd5780632a55205a1461021957806342842e0e1461024a57806342966c68146102665780635768f271146102825780636352211e1461029e57610142565b806301ffc9a71461014757806302fa7c471461017757806306fdde0314610193578063081812fc146101b1578063095ea7b3146101e1575b600080fd5b610161600480360381019061015c9190612d7d565b610430565b60405161016e91906133c5565b60405180910390f35b610191600480360381019061018c9190612cf4565b610462565b005b61019b610510565b6040516101a891906133fb565b60405180910390f35b6101cb60048036038101906101c69190612e8a565b6105a2565b6040516101d8919061330c565b60405180910390f35b6101fb60048036038101906101f69190612cb4565b6105e8565b005b61021760048036038101906102129190612b9e565b610700565b005b610233600480360381019061022e9190612f0a565b610760565b604051610241929190613373565b60405180910390f35b610264600480360381019061025f9190612b9e565b61094b565b005b610280600480360381019061027b9190612e8a565b61096b565b005b61029c60048036038101906102979190612d34565b6109ed565b005b6102b860048036038101906102b39190612e8a565b610a64565b6040516102c5919061330c565b60405180910390f35b6102e860048036038101906102e39190612b31565b610b16565b6040516102f5919061367d565b60405180910390f35b610306610bce565b005b610310610be2565b60405161031d919061330c565b60405180910390f35b61032e610c0c565b60405161033b91906133fb565b60405180910390f35b61035e60048036038101906103599190612c74565b610c9e565b005b61037a60048036038101906103759190612dd7565b610cb4565b005b61039660048036038101906103919190612bf1565b610e98565b005b6103b260048036038101906103ad9190612eb7565b610efa565b005b6103ce60048036038101906103c99190612e8a565b610fac565b6040516103db91906133fb565b60405180910390f35b6103fe60048036038101906103f99190612b5e565b6110bf565b60405161040b91906133c5565b60405180910390f35b61042e60048036038101906104299190612b31565b611153565b005b600061043b826111d7565b8061044b575061044a826112b9565b5b8061045b575061045a826112b9565b5b9050919050565b61046a611333565b6109c4816bffffffffffffffffffffffff1611156104b4576040517f67e4629a00000000000000000000000000000000000000000000000000000000815260040160405180910390fd5b6104be82826113b1565b8173ffffffffffffffffffffffffffffffffffffffff167f649787d44a877bdd8d255fbfdaba9927f56be0ec7aae8fb86cd16841966479d28260405161050491906136c1565b60405180910390a25050565b60606065805461051f906139d4565b80601f016020809104026020016040519081016040528092919081815260200182805461054b906139d4565b80156105985780601f1061056d57610100808354040283529160200191610598565b820191906000526020600020905b81548152906001019060200180831161057b57829003601f168201915b5050505050905090565b60006105ad82611547565b6069600083815260200190815260200160002060009054906101000a900473ffffffffffffffffffffffffffffffffffffffff169050919050565b60006105f382610a64565b90508073ffffffffffffffffffffffffffffffffffffffff168373ffffffffffffffffffffffffffffffffffffffff161415610664576040517f08c379a000000000000000000000000000000000000000000000000000000000815260040161065b906135bd565b60405180910390fd5b8073ffffffffffffffffffffffffffffffffffffffff16610683611592565b73ffffffffffffffffffffffffffffffffffffffff1614806106b257506106b1816106ac611592565b6110bf565b5b6106f1576040517f08c379a00000000000000000000000000000000000000000000000000000000081526004016106e89061353d565b60405180910390fd5b6106fb838361159a565b505050565b61071161070b611592565b82611653565b610750576040517f08c379a00000000000000000000000000000000000000000000000000000000081526004016107479061363d565b60405180910390fd5b61075b8383836116e8565b505050565b600080600060ca60008681526020019081526020016000206040518060400160405290816000820160009054906101000a900473ffffffffffffffffffffffffffffffffffffffff1673ffffffffffffffffffffffffffffffffffffffff1673ffffffffffffffffffffffffffffffffffffffff1681526020016000820160149054906101000a90046bffffffffffffffffffffffff166bffffffffffffffffffffffff166bffffffffffffffffffffffff16815250509050600073ffffffffffffffffffffffffffffffffffffffff16816000015173ffffffffffffffffffffffffffffffffffffffff1614156108f65760c96040518060400160405290816000820160009054906101000a900473ffffffffffffffffffffffffffffffffffffffff1673ffffffffffffffffffffffffffffffffffffffff1673ffffffffffffffffffffffffffffffffffffffff1681526020016000820160149054906101000a90046bffffffffffffffffffffffff166bffffffffffffffffffffffff166bffffffffffffffffffffffff168152505090505b600061090061194f565b6bffffffffffffffffffffffff1682602001516bffffffffffffffffffffffff168661092c9190613859565b6109369190613828565b90508160000151819350935050509250929050565b61096683838360405180602001604052806000815250610e98565b505050565b3373ffffffffffffffffffffffffffffffffffffffff1661098b82610a64565b73ffffffffffffffffffffffffffffffffffffffff16146109d8576040517feeaa790500000000000000000000000000000000000000000000000000000000815260040160405180910390fd5b6109e181611959565b6109ea816119ac565b50565b6109f5611333565b600080600090505b8251811015610a5f57610a1161012d611a0b565b9150610a1e61012d611a19565b610a283383611a2f565b610a4c82848381518110610a3f57610a3e613b3e565b5b6020026020010151611c09565b8080610a5790613a37565b9150506109fd565b505050565b6000806067600084815260200190815260200160002060009054906101000a900473ffffffffffffffffffffffffffffffffffffffff169050600073ffffffffffffffffffffffffffffffffffffffff168173ffffffffffffffffffffffffffffffffffffffff161415610b0d576040517f08c379a0000000000000000000000000000000000000000000000000000000008152600401610b049061359d565b60405180910390fd5b80915050919050565b60008073ffffffffffffffffffffffffffffffffffffffff168273ffffffffffffffffffffffffffffffffffffffff161415610b87576040517f08c379a0000000000000000000000000000000000000000000000000000000008152600401610b7e906134dd565b60405180910390fd5b606860008373ffffffffffffffffffffffffffffffffffffffff1673ffffffffffffffffffffffffffffffffffffffff168152602001908152602001600020549050919050565b610bd6611333565b610be06000611c7d565b565b600060fb60009054906101000a900473ffffffffffffffffffffffffffffffffffffffff16905090565b606060668054610c1b906139d4565b80601f0160208091040260200160405190810160405280929190818152602001828054610c47906139d4565b8015610c945780601f10610c6957610100808354040283529160200191610c94565b820191906000526020600020905b815481529060010190602001808311610c7757829003601f168201915b5050505050905090565b610cb0610ca9611592565b8383611d43565b5050565b60008060019054906101000a900460ff16159050808015610ce55750600160008054906101000a900460ff1660ff16105b80610d125750610cf430611eb0565b158015610d115750600160008054906101000a900460ff1660ff16145b5b610d51576040517f08c379a0000000000000000000000000000000000000000000000000000000008152600401610d489061351d565b60405180910390fd5b60016000806101000a81548160ff021916908360ff1602179055508015610d8e576001600060016101000a81548160ff0219169083151502179055505b610d96611ed3565b610d9e611f2c565b610da88686611f7d565b610db28383610462565b610dbb84611153565b3373ffffffffffffffffffffffffffffffffffffffff1685604051610de091906132d1565b604051809103902087604051610df691906132d1565b60405180910390207fb1b873058c2281a857e99160de508f1e36f6fbbeca6de3a45bf8316ff91ead788686604051610e2f92919061339c565b60405180910390a48015610e905760008060016101000a81548160ff0219169083151502179055507f7f26b83ff96e1f2b6a682f133852f6798a09c465da95921460cefb38474024986001604051610e8791906133e0565b60405180910390a15b505050505050565b610ea9610ea3611592565b83611653565b610ee8576040517f08c379a0000000000000000000000000000000000000000000000000000000008152600401610edf9061363d565b60405180910390fd5b610ef484848484611fda565b50505050565b610f02611333565b6109c4816bffffffffffffffffffffffff161115610f4c576040517f67e4629a00000000000000000000000000000000000000000000000000000000815260040160405180910390fd5b610f57838383612036565b8173ffffffffffffffffffffffffffffffffffffffff167f6b487ddd0efdbfd7606e8030e43550f55602ad00f641f939c333b8731daca8a28483604051610f9f929190613698565b60405180910390a2505050565b6060610fb782611547565b6000609760008481526020019081526020016000208054610fd7906139d4565b80601f0160208091040260200160405190810160405280929190818152602001828054611003906139d4565b80156110505780601f1061102557610100808354040283529160200191611050565b820191906000526020600020905b81548152906001019060200180831161103357829003601f168201915b5050505050905060006110616121de565b90506000815114156110775781925050506110ba565b6000825111156110ac5780826040516020016110949291906132e8565b604051602081830303815290604052925050506110ba565b6110b5846121f5565b925050505b919050565b6000606a60008473ffffffffffffffffffffffffffffffffffffffff1673ffffffffffffffffffffffffffffffffffffffff16815260200190815260200160002060008373ffffffffffffffffffffffffffffffffffffffff1673ffffffffffffffffffffffffffffffffffffffff16815260200190815260200160002060009054906101000a900460ff16905092915050565b61115b611333565b600073ffffffffffffffffffffffffffffffffffffffff168173ffffffffffffffffffffffffffffffffffffffff1614156111cb576040517f08c379a00000000000000000000000000000000000000000000000000000000081526004016111c29061343d565b60405180910390fd5b6111d481611c7d565b50565b60007f80ac58cd000000000000000000000000000000000000000000000000000000007bffffffffffffffffffffffffffffffffffffffffffffffffffffffff1916827bffffffffffffffffffffffffffffffffffffffffffffffffffffffff191614806112a257507f5b5e139f000000000000000000000000000000000000000000000000000000007bffffffffffffffffffffffffffffffffffffffffffffffffffffffff1916827bffffffffffffffffffffffffffffffffffffffffffffffffffffffff1916145b806112b257506112b18261225d565b5b9050919050565b60007f2a55205a000000000000000000000000000000000000000000000000000000007bffffffffffffffffffffffffffffffffffffffffffffffffffffffff1916827bffffffffffffffffffffffffffffffffffffffffffffffffffffffff1916148061132c575061132b826111d7565b5b9050919050565b61133b611592565b73ffffffffffffffffffffffffffffffffffffffff16611359610be2565b73ffffffffffffffffffffffffffffffffffffffff16146113af576040517f08c379a00000000000000000000000000000000000000000000000000000000081526004016113a69061357d565b60405180910390fd5b565b6113b961194f565b6bffffffffffffffffffffffff16816bffffffffffffffffffffffff161115611417576040517f08c379a000000000000000000000000000000000000000000000000000000000815260040161140e9061361d565b60405180910390fd5b600073ffffffffffffffffffffffffffffffffffffffff168273ffffffffffffffffffffffffffffffffffffffff161415611487576040517f08c379a000000000000000000000000000000000000000000000000000000000815260040161147e9061365d565b60405180910390fd5b60405180604001604052808373ffffffffffffffffffffffffffffffffffffffff168152602001826bffffffffffffffffffffffff1681525060c960008201518160000160006101000a81548173ffffffffffffffffffffffffffffffffffffffff021916908373ffffffffffffffffffffffffffffffffffffffff16021790555060208201518160000160146101000a8154816bffffffffffffffffffffffff02191690836bffffffffffffffffffffffff1602179055509050505050565b611550816122c7565b61158f576040517f08c379a00000000000000000000000000000000000000000000000000000000081526004016115869061359d565b60405180910390fd5b50565b600033905090565b816069600083815260200190815260200160002060006101000a81548173ffffffffffffffffffffffffffffffffffffffff021916908373ffffffffffffffffffffffffffffffffffffffff160217905550808273ffffffffffffffffffffffffffffffffffffffff1661160d83610a64565b73ffffffffffffffffffffffffffffffffffffffff167f8c5be1e5ebec7d5bd14f71427d1e84f3dd0314c0f7b2291e5b200ac8c7c3b92560405160405180910390a45050565b60008061165f83610a64565b90508073ffffffffffffffffffffffffffffffffffffffff168473ffffffffffffffffffffffffffffffffffffffff1614806116a157506116a081856110bf565b5b806116df57508373ffffffffffffffffffffffffffffffffffffffff166116c7846105a2565b73ffffffffffffffffffffffffffffffffffffffff16145b91505092915050565b8273ffffffffffffffffffffffffffffffffffffffff1661170882610a64565b73ffffffffffffffffffffffffffffffffffffffff161461175e576040517f08c379a00000000000000000000000000000000000000000000000000000000081526004016117559061345d565b60405180910390fd5b600073ffffffffffffffffffffffffffffffffffffffff168273ffffffffffffffffffffffffffffffffffffffff1614156117ce576040517f08c379a00000000000000000000000000000000000000000000000000000000081526004016117c59061349d565b60405180910390fd5b6117d9838383612333565b6117e460008261159a565b6001606860008573ffffffffffffffffffffffffffffffffffffffff1673ffffffffffffffffffffffffffffffffffffffff168152602001908152602001600020600082825461183491906138b3565b925050819055506001606860008473ffffffffffffffffffffffffffffffffffffffff1673ffffffffffffffffffffffffffffffffffffffff168152602001908152602001600020600082825461188b91906137d2565b92505081905550816067600083815260200190815260200160002060006101000a81548173ffffffffffffffffffffffffffffffffffffffff021916908373ffffffffffffffffffffffffffffffffffffffff160217905550808273ffffffffffffffffffffffffffffffffffffffff168473ffffffffffffffffffffffffffffffffffffffff167fddf252ad1be2c89b69c2b068fc378daa952ba7f163c4a11628f55a4df523b3ef60405160405180910390a461194a838383612338565b505050565b6000612710905090565b6119628161233d565b6000609760008381526020019081526020016000208054611982906139d4565b9050146119a9576097600082815260200190815260200160002060006119a89190612834565b5b50565b60ca6000828152602001908152602001600020600080820160006101000a81549073ffffffffffffffffffffffffffffffffffffffff02191690556000820160146101000a8154906bffffffffffffffffffffffff0219169055505050565b600081600001549050919050565b6001816000016000828254019250508190555050565b600073ffffffffffffffffffffffffffffffffffffffff168273ffffffffffffffffffffffffffffffffffffffff161415611a9f576040517f08c379a0000000000000000000000000000000000000000000000000000000008152600401611a969061355d565b60405180910390fd5b611aa8816122c7565b15611ae8576040517f08c379a0000000000000000000000000000000000000000000000000000000008152600401611adf9061347d565b60405180910390fd5b611af460008383612333565b6001606860008473ffffffffffffffffffffffffffffffffffffffff1673ffffffffffffffffffffffffffffffffffffffff1681526020019081526020016000206000828254611b4491906137d2565b92505081905550816067600083815260200190815260200160002060006101000a81548173ffffffffffffffffffffffffffffffffffffffff021916908373ffffffffffffffffffffffffffffffffffffffff160217905550808273ffffffffffffffffffffffffffffffffffffffff16600073ffffffffffffffffffffffffffffffffffffffff167fddf252ad1be2c89b69c2b068fc378daa952ba7f163c4a11628f55a4df523b3ef60405160405180910390a4611c0560008383612338565b5050565b611c12826122c7565b611c51576040517f08c379a0000000000000000000000000000000000000000000000000000000008152600401611c48906134fd565b60405180910390fd5b80609760008481526020019081526020016000209080519060200190611c78929190612874565b505050565b600060fb60009054906101000a900473ffffffffffffffffffffffffffffffffffffffff1690508160fb60006101000a81548173ffffffffffffffffffffffffffffffffffffffff021916908373ffffffffffffffffffffffffffffffffffffffff1602179055508173ffffffffffffffffffffffffffffffffffffffff168173ffffffffffffffffffffffffffffffffffffffff167f8be0079c531659141344cd1fd0a4f28419497f9722a3daafe3b4186f6b6457e060405160405180910390a35050565b8173ffffffffffffffffffffffffffffffffffffffff168373ffffffffffffffffffffffffffffffffffffffff161415611db2576040517f08c379a0000000000000000000000000000000000000000000000000000000008152600401611da9906134bd565b60405180910390fd5b80606a60008573ffffffffffffffffffffffffffffffffffffffff1673ffffffffffffffffffffffffffffffffffffffff16815260200190815260200160002060008473ffffffffffffffffffffffffffffffffffffffff1673ffffffffffffffffffffffffffffffffffffffff16815260200190815260200160002060006101000a81548160ff0219169083151502179055508173ffffffffffffffffffffffffffffffffffffffff168373ffffffffffffffffffffffffffffffffffffffff167f17307eab39ab6107e8899845ad3d59bd9653f200f220920489ca2b5937696c3183604051611ea391906133c5565b60405180910390a3505050565b6000808273ffffffffffffffffffffffffffffffffffffffff163b119050919050565b600060019054906101000a900460ff16611f22576040517f08c379a0000000000000000000000000000000000000000000000000000000008152600401611f19906135fd565b60405180910390fd5b611f2a61245a565b565b600060019054906101000a900460ff16611f7b576040517f08c379a0000000000000000000000000000000000000000000000000000000008152600401611f72906135fd565b60405180910390fd5b565b600060019054906101000a900460ff16611fcc576040517f08c379a0000000000000000000000000000000000000000000000000000000008152600401611fc3906135fd565b60405180910390fd5b611fd682826124bb565b5050565b611fe58484846116e8565b611ff18484848461253c565b612030576040517f08c379a00000000000000000000000000000000000000000000000000000000081526004016120279061341d565b60405180910390fd5b50505050565b61203e61194f565b6bffffffffffffffffffffffff16816bffffffffffffffffffffffff16111561209c576040517f08c379a00000000000000000000000000000000000000000000000000000000081526004016120939061361d565b60405180910390fd5b600073ffffffffffffffffffffffffffffffffffffffff168273ffffffffffffffffffffffffffffffffffffffff16141561210c576040517f08c379a0000000000000000000000000000000000000000000000000000000008152600401612103906135dd565b60405180910390fd5b60405180604001604052808373ffffffffffffffffffffffffffffffffffffffff168152602001826bffffffffffffffffffffffff1681525060ca600085815260200190815260200160002060008201518160000160006101000a81548173ffffffffffffffffffffffffffffffffffffffff021916908373ffffffffffffffffffffffffffffffffffffffff16021790555060208201518160000160146101000a8154816bffffffffffffffffffffffff02191690836bffffffffffffffffffffffff160217905550905050505050565b606060405180602001604052806000815250905090565b606061220082611547565b600061220a6121de565b9050600081511161222a5760405180602001604052806000815250612255565b80612234846126d3565b6040516020016122459291906132e8565b6040516020818303038152906040525b915050919050565b60007f01ffc9a7000000000000000000000000000000000000000000000000000000007bffffffffffffffffffffffffffffffffffffffffffffffffffffffff1916827bffffffffffffffffffffffffffffffffffffffffffffffffffffffff1916149050919050565b60008073ffffffffffffffffffffffffffffffffffffffff166067600084815260200190815260200160002060009054906101000a900473ffffffffffffffffffffffffffffffffffffffff1673ffffffffffffffffffffffffffffffffffffffff1614159050919050565b505050565b505050565b600061234882610a64565b905061235681600084612333565b61236160008361159a565b6001606860008373ffffffffffffffffffffffffffffffffffffffff1673ffffffffffffffffffffffffffffffffffffffff16815260200190815260200160002060008282546123b191906138b3565b925050819055506067600083815260200190815260200160002060006101000a81549073ffffffffffffffffffffffffffffffffffffffff021916905581600073ffffffffffffffffffffffffffffffffffffffff168273ffffffffffffffffffffffffffffffffffffffff167fddf252ad1be2c89b69c2b068fc378daa952ba7f163c4a11628f55a4df523b3ef60405160405180910390a461245681600084612338565b5050565b600060019054906101000a900460ff166124a9576040517f08c379a00000000000000000000000000000000000000000000000000000000081526004016124a0906135fd565b60405180910390fd5b6124b96124b4611592565b611c7d565b565b600060019054906101000a900460ff1661250a576040517f08c379a0000000000000000000000000000000000000000000000000000000008152600401612501906135fd565b60405180910390fd5b8160659080519060200190612520929190612874565b508060669080519060200190612537929190612874565b505050565b600061255d8473ffffffffffffffffffffffffffffffffffffffff16611eb0565b156126c6578373ffffffffffffffffffffffffffffffffffffffff1663150b7a02612586611592565b8786866040518563ffffffff1660e01b81526004016125a89493929190613327565b602060405180830381600087803b1580156125c257600080fd5b505af19250505080156125f357506040513d601f19601f820116820180604052508101906125f09190612daa565b60015b612676573d8060008114612623576040519150601f19603f3d011682016040523d82523d6000602084013e612628565b606091505b5060008151141561266e576040517f08c379a00000000000000000000000000000000000000000000000000000000081526004016126659061341d565b60405180910390fd5b805181602001fd5b63150b7a0260e01b7bffffffffffffffffffffffffffffffffffffffffffffffffffffffff1916817bffffffffffffffffffffffffffffffffffffffffffffffffffffffff1916149150506126cb565b600190505b949350505050565b6060600082141561271b576040518060400160405280600181526020017f3000000000000000000000000000000000000000000000000000000000000000815250905061282f565b600082905060005b6000821461274d57808061273690613a37565b915050600a826127469190613828565b9150612723565b60008167ffffffffffffffff81111561276957612768613b6d565b5b6040519080825280601f01601f19166020018201604052801561279b5781602001600182028036833780820191505090505b5090505b60008514612828576001826127b491906138b3565b9150600a856127c39190613a80565b60306127cf91906137d2565b60f81b8183815181106127e5576127e4613b3e565b5b60200101907effffffffffffffffffffffffffffffffffffffffffffffffffffffffffffff1916908160001a905350600a856128219190613828565b945061279f565b8093505050505b919050565b508054612840906139d4565b6000825580601f106128525750612871565b601f01602090049060005260206000209081019061287091906128fa565b5b50565b828054612880906139d4565b90600052602060002090601f0160209004810192826128a257600085556128e9565b82601f106128bb57805160ff19168380011785556128e9565b828001600101855582156128e9579182015b828111156128e85782518255916020019190600101906128cd565b5b5090506128f691906128fa565b5090565b5b808211156129135760008160009055506001016128fb565b5090565b600061292a61292584613701565b6136dc565b9050808382526020820190508285602086028201111561294d5761294c613ba1565b5b60005b8581101561299b57813567ffffffffffffffff81111561297357612972613b9c565b5b8086016129808982612ad9565b85526020850194506020840193505050600181019050612950565b5050509392505050565b60006129b86129b38461372d565b6136dc565b9050828152602081018484840111156129d4576129d3613ba6565b5b6129df848285613992565b509392505050565b60006129fa6129f58461375e565b6136dc565b905082815260208101848484011115612a1657612a15613ba6565b5b612a21848285613992565b509392505050565b600081359050612a3881614099565b92915050565b600082601f830112612a5357612a52613b9c565b5b8135612a63848260208601612917565b91505092915050565b600081359050612a7b816140b0565b92915050565b600081359050612a90816140c7565b92915050565b600081519050612aa5816140c7565b92915050565b600082601f830112612ac057612abf613b9c565b5b8135612ad08482602086016129a5565b91505092915050565b600082601f830112612aee57612aed613b9c565b5b8135612afe8482602086016129e7565b91505092915050565b600081359050612b16816140de565b92915050565b600081359050612b2b816140f5565b92915050565b600060208284031215612b4757612b46613bb0565b5b6000612b5584828501612a29565b91505092915050565b60008060408385031215612b7557612b74613bb0565b5b6000612b8385828601612a29565b9250506020612b9485828601612a29565b9150509250929050565b600080600060608486031215612bb757612bb6613bb0565b5b6000612bc586828701612a29565b9350506020612bd686828701612a29565b9250506040612be786828701612b07565b9150509250925092565b60008060008060808587031215612c0b57612c0a613bb0565b5b6000612c1987828801612a29565b9450506020612c2a87828801612a29565b9350506040612c3b87828801612b07565b925050606085013567ffffffffffffffff811115612c5c57612c5b613bab565b5b612c6887828801612aab565b91505092959194509250565b60008060408385031215612c8b57612c8a613bb0565b5b6000612c9985828601612a29565b9250506020612caa85828601612a6c565b9150509250929050565b60008060408385031215612ccb57612cca613bb0565b5b6000612cd985828601612a29565b9250506020612cea85828601612b07565b9150509250929050565b60008060408385031215612d0b57612d0a613bb0565b5b6000612d1985828601612a29565b9250506020612d2a85828601612b1c565b9150509250929050565b600060208284031215612d4a57612d49613bb0565b5b600082013567ffffffffffffffff811115612d6857612d67613bab565b5b612d7484828501612a3e565b91505092915050565b600060208284031215612d9357612d92613bb0565b5b6000612da184828501612a81565b91505092915050565b600060208284031215612dc057612dbf613bb0565b5b6000612dce84828501612a96565b91505092915050565b600080600080600060a08688031215612df357612df2613bb0565b5b600086013567ffffffffffffffff811115612e1157612e10613bab565b5b612e1d88828901612ad9565b955050602086013567ffffffffffffffff811115612e3e57612e3d613bab565b5b612e4a88828901612ad9565b9450506040612e5b88828901612a29565b9350506060612e6c88828901612a29565b9250506080612e7d88828901612b1c565b9150509295509295909350565b600060208284031215612ea057612e9f613bb0565b5b6000612eae84828501612b07565b91505092915050565b600080600060608486031215612ed057612ecf613bb0565b5b6000612ede86828701612b07565b9350506020612eef86828701612a29565b9250506040612f0086828701612b1c565b9150509250925092565b60008060408385031215612f2157612f20613bb0565b5b6000612f2f85828601612b07565b9250506020612f4085828601612b07565b9150509250929050565b612f53816138e7565b82525050565b612f62816138f9565b82525050565b6000612f738261378f565b612f7d81856137a5565b9350612f8d8185602086016139a1565b612f9681613bb5565b840191505092915050565b612faa81613980565b82525050565b6000612fbb8261379a565b612fc581856137b6565b9350612fd58185602086016139a1565b612fde81613bb5565b840191505092915050565b6000612ff48261379a565b612ffe81856137c7565b935061300e8185602086016139a1565b80840191505092915050565b60006130276032836137b6565b915061303282613bc6565b604082019050919050565b600061304a6026836137b6565b915061305582613c15565b604082019050919050565b600061306d6025836137b6565b915061307882613c64565b604082019050919050565b6000613090601c836137b6565b915061309b82613cb3565b602082019050919050565b60006130b36024836137b6565b91506130be82613cdc565b604082019050919050565b60006130d66019836137b6565b91506130e182613d2b565b602082019050919050565b60006130f96029836137b6565b915061310482613d54565b604082019050919050565b600061311c602e836137b6565b915061312782613da3565b604082019050919050565b600061313f602e836137b6565b915061314a82613df2565b604082019050919050565b6000613162603e836137b6565b915061316d82613e41565b604082019050919050565b60006131856020836137b6565b915061319082613e90565b602082019050919050565b60006131a86020836137b6565b91506131b382613eb9565b602082019050919050565b60006131cb6018836137b6565b91506131d682613ee2565b602082019050919050565b60006131ee6021836137b6565b91506131f982613f0b565b604082019050919050565b6000613211601b836137b6565b915061321c82613f5a565b602082019050919050565b6000613234602b836137b6565b915061323f82613f83565b604082019050919050565b6000613257602a836137b6565b915061326282613fd2565b604082019050919050565b600061327a602e836137b6565b915061328582614021565b604082019050919050565b600061329d6019836137b6565b91506132a882614070565b602082019050919050565b6132bc81613951565b82525050565b6132cb81613968565b82525050565b60006132dd8284612fe9565b915081905092915050565b60006132f48285612fe9565b91506133008284612fe9565b91508190509392505050565b60006020820190506133216000830184612f4a565b92915050565b600060808201905061333c6000830187612f4a565b6133496020830186612f4a565b61335660408301856132b3565b81810360608301526133688184612f68565b905095945050505050565b60006040820190506133886000830185612f4a565b61339560208301846132b3565b9392505050565b60006040820190506133b16000830185612f4a565b6133be60208301846132c2565b9392505050565b60006020820190506133da6000830184612f59565b92915050565b60006020820190506133f56000830184612fa1565b92915050565b600060208201905081810360008301526134158184612fb0565b905092915050565b600060208201905081810360008301526134368161301a565b9050919050565b600060208201905081810360008301526134568161303d565b9050919050565b6000602082019050818103600083015261347681613060565b9050919050565b6000602082019050818103600083015261349681613083565b9050919050565b600060208201905081810360008301526134b6816130a6565b9050919050565b600060208201905081810360008301526134d6816130c9565b9050919050565b600060208201905081810360008301526134f6816130ec565b9050919050565b600060208201905081810360008301526135168161310f565b9050919050565b6000602082019050818103600083015261353681613132565b9050919050565b6000602082019050818103600083015261355681613155565b9050919050565b6000602082019050818103600083015261357681613178565b9050919050565b600060208201905081810360008301526135968161319b565b9050919050565b600060208201905081810360008301526135b6816131be565b9050919050565b600060208201905081810360008301526135d6816131e1565b9050919050565b600060208201905081810360008301526135f681613204565b9050919050565b6000602082019050818103600083015261361681613227565b9050919050565b600060208201905081810360008301526136368161324a565b9050919050565b600060208201905081810360008301526136568161326d565b9050919050565b6000602082019050818103600083015261367681613290565b9050919050565b600060208201905061369260008301846132b3565b92915050565b60006040820190506136ad60008301856132b3565b6136ba60208301846132c2565b9392505050565b60006020820190506136d660008301846132c2565b92915050565b60006136e66136f7565b90506136f28282613a06565b919050565b6000604051905090565b600067ffffffffffffffff82111561371c5761371b613b6d565b5b602082029050602081019050919050565b600067ffffffffffffffff82111561374857613747613b6d565b5b61375182613bb5565b9050602081019050919050565b600067ffffffffffffffff82111561377957613778613b6d565b5b61378282613bb5565b9050602081019050919050565b600081519050919050565b600081519050919050565b600082825260208201905092915050565b600082825260208201905092915050565b600081905092915050565b60006137dd82613951565b91506137e883613951565b9250827fffffffffffffffffffffffffffffffffffffffffffffffffffffffffffffffff0382111561381d5761381c613ab1565b5b828201905092915050565b600061383382613951565b915061383e83613951565b92508261384e5761384d613ae0565b5b828204905092915050565b600061386482613951565b915061386f83613951565b9250817fffffffffffffffffffffffffffffffffffffffffffffffffffffffffffffffff04831182151516156138a8576138a7613ab1565b5b828202905092915050565b60006138be82613951565b91506138c983613951565b9250828210156138dc576138db613ab1565b5b828203905092915050565b60006138f282613931565b9050919050565b60008115159050919050565b60007fffffffff0000000000000000000000000000000000000000000000000000000082169050919050565b600073ffffffffffffffffffffffffffffffffffffffff82169050919050565b6000819050919050565b600060ff82169050919050565b60006bffffffffffffffffffffffff82169050919050565b600061398b8261395b565b9050919050565b82818337600083830152505050565b60005b838110156139bf5780820151818401526020810190506139a4565b838111156139ce576000848401525b50505050565b600060028204905060018216806139ec57607f821691505b60208210811415613a00576139ff613b0f565b5b50919050565b613a0f82613bb5565b810181811067ffffffffffffffff82111715613a2e57613a2d613b6d565b5b80604052505050565b6000613a4282613951565b91507fffffffffffffffffffffffffffffffffffffffffffffffffffffffffffffffff821415613a7557613a74613ab1565b5b600182019050919050565b6000613a8b82613951565b9150613a9683613951565b925082613aa657613aa5613ae0565b5b828206905092915050565b7f4e487b7100000000000000000000000000000000000000000000000000000000600052601160045260246000fd5b7f4e487b7100000000000000000000000000000000000000000000000000000000600052601260045260246000fd5b7f4e487b7100000000000000000000000000000000000000000000000000000000600052602260045260246000fd5b7f4e487b7100000000000000000000000000000000000000000000000000000000600052603260045260246000fd5b7f4e487b7100000000000000000000000000000000000000000000000000000000600052604160045260246000fd5b600080fd5b600080fd5b600080fd5b600080fd5b600080fd5b6000601f19601f8301169050919050565b7f4552433732313a207472616e7366657220746f206e6f6e20455243373231526560008201527f63656976657220696d706c656d656e7465720000000000000000000000000000602082015250565b7f4f776e61626c653a206e6577206f776e657220697320746865207a65726f206160008201527f6464726573730000000000000000000000000000000000000000000000000000602082015250565b7f4552433732313a207472616e736665722066726f6d20696e636f72726563742060008201527f6f776e6572000000000000000000000000000000000000000000000000000000602082015250565b7f4552433732313a20746f6b656e20616c7265616479206d696e74656400000000600082015250565b7f4552433732313a207472616e7366657220746f20746865207a65726f2061646460008201527f7265737300000000000000000000000000000000000000000000000000000000602082015250565b7f4552433732313a20617070726f766520746f2063616c6c657200000000000000600082015250565b7f4552433732313a2061646472657373207a65726f206973206e6f74206120766160008201527f6c6964206f776e65720000000000000000000000000000000000000000000000602082015250565b7f45524337323155524953746f726167653a2055524920736574206f66206e6f6e60008201527f6578697374656e7420746f6b656e000000000000000000000000000000000000602082015250565b7f496e697469616c697a61626c653a20636f6e747261637420697320616c72656160008201527f647920696e697469616c697a6564000000000000000000000000000000000000602082015250565b7f4552433732313a20617070726f76652063616c6c6572206973206e6f7420746f60008201527f6b656e206f776e6572206e6f7220617070726f76656420666f7220616c6c0000602082015250565b7f4552433732313a206d696e7420746f20746865207a65726f2061646472657373600082015250565b7f4f776e61626c653a2063616c6c6572206973206e6f7420746865206f776e6572600082015250565b7f4552433732313a20696e76616c696420746f6b656e2049440000000000000000600082015250565b7f4552433732313a20617070726f76616c20746f2063757272656e74206f776e6560008201527f7200000000000000000000000000000000000000000000000000000000000000602082015250565b7f455243323938313a20496e76616c696420706172616d65746572730000000000600082015250565b7f496e697469616c697a61626c653a20636f6e7472616374206973206e6f74206960008201527f6e697469616c697a696e67000000000000000000000000000000000000000000602082015250565b7f455243323938313a20726f79616c7479206665652077696c6c2065786365656460008201527f2073616c65507269636500000000000000000000000000000000000000000000602082015250565b7f4552433732313a2063616c6c6572206973206e6f7420746f6b656e206f776e6560008201527f72206e6f7220617070726f766564000000000000000000000000000000000000602082015250565b7f455243323938313a20696e76616c696420726563656976657200000000000000600082015250565b6140a2816138e7565b81146140ad57600080fd5b50565b6140b9816138f9565b81146140c457600080fd5b50565b6140d081613905565b81146140db57600080fd5b50565b6140e781613951565b81146140f257600080fd5b50565b6140fe81613968565b811461410957600080fd5b5056fea2646970667358221220717a0cba21e327659eab025b459c58a8bde7b3e1b7218760413d4018b29d158e64736f6c63430008070033",
  "devdoc": {
    "author": "Trader Joe",
    "events": {
      "InitializedMintpeg(string,string,address,address,uint96)": {
        "params": {
          "_collectionName": "ERC721 name",
          "_collectionSymbol": "ERC721 symbol",
          "_feePercent": "Royalty fee numerator; denominator is 10,000. So 500 represents 5%",
          "_projectOwner": "function caller",
          "_royaltyReceiver": "Royalty fee collector"
        }
      },
      "RoyaltyInfoChanged(address,uint96)": {
        "params": {
          "feePercent": "Royalty fee numerator; denominator is 10,000. So 500 represents 5%",
          "royaltyReceiver": "Royalty fee collector"
        }
      },
      "TokenRoyaltyInfoChanged(uint256,address,uint96)": {
        "params": {
          "feePercent": "Royalty fee numerator; denominator is 10,000. So 500 represents 5%",
          "royaltyReceiver": "Royalty fee collector",
          "tokenId": "Token ID royalty to be set"
        }
      }
    },
    "kind": "dev",
    "methods": {
      "approve(address,uint256)": {
        "details": "See {IERC721-approve}."
      },
      "balanceOf(address)": {
        "details": "See {IERC721-balanceOf}."
      },
      "burn(uint256)": {
        "details": "Can only be called by token owner",
        "params": {
          "_tokenId": "Token ID to be burnt"
        }
      },
      "getApproved(uint256)": {
        "details": "See {IERC721-getApproved}."
      },
      "initialize(string,string,address,address,uint96)": {
        "params": {
          "_collectionName": "ERC721 name",
          "_collectionSymbol": "ERC721 symbol",
          "_feePercent": "Royalty fee numerator; denominator is 10,000. So 500 represents 5%",
          "_royaltyReceiver": "Royalty fee collector"
        }
      },
      "isApprovedForAll(address,address)": {
        "details": "See {IERC721-isApprovedForAll}."
      },
      "mint(string[])": {
        "details": "Can only be called by project owner",
        "params": {
          "_tokenURIs": "Array of tokenURIs (probably IPFS) of the tokenIds to be minted"
        }
      },
      "name()": {
        "details": "See {IERC721Metadata-name}."
      },
      "owner()": {
        "details": "Returns the address of the current owner."
      },
      "ownerOf(uint256)": {
        "details": "See {IERC721-ownerOf}."
      },
      "renounceOwnership()": {
        "details": "Leaves the contract without owner. It will not be possible to call `onlyOwner` functions anymore. Can only be called by the current owner. NOTE: Renouncing ownership will leave the contract without an owner, thereby removing any functionality that is only available to the owner."
      },
      "royaltyInfo(uint256,uint256)": {
        "details": "Returns how much royalty is owed and to whom, based on a sale price that may be denominated in any unit of exchange. The royalty amount is denominated and should be paid in that same unit of exchange."
      },
      "safeTransferFrom(address,address,uint256)": {
        "details": "See {IERC721-safeTransferFrom}."
      },
      "safeTransferFrom(address,address,uint256,bytes)": {
        "details": "See {IERC721-safeTransferFrom}."
      },
      "setApprovalForAll(address,bool)": {
        "details": "See {IERC721-setApprovalForAll}."
      },
      "setRoyaltyInfo(address,uint96)": {
        "details": "Can only be called by project ownerowner can prevent any sale by setting the address to any address that can't receive AVAX.",
        "params": {
          "_feePercent": "Royalty fee numerator; denominator is 10,000. So 500 represents 5%",
          "_royaltyReceiver": "Royalty fee collector"
        }
      },
      "setTokenRoyaltyInfo(uint256,address,uint96)": {
        "details": "Can only be called by project ownerowner can prevent any sale by setting the address to any address that can't receive AVAX.",
        "params": {
          "_feePercent": "Royalty fee numerator; denominator is 10,000. So 500 represents 5%",
          "_royaltyReceiver": "Royalty fee collector",
          "_tokenId": "Token ID royalty to be set"
        }
      },
      "supportsInterface(bytes4)": {
        "details": "Needs to be overridden cause two base contracts implement it",
        "params": {
          "_interfaceId": "InterfaceId to consider. Comes from type(InterfaceContract).interfaceId"
        },
        "returns": {
          "_0": "bool True if the considered interface is supported"
        }
      },
      "symbol()": {
        "details": "See {IERC721Metadata-symbol}."
      },
      "tokenURI(uint256)": {
        "details": "See {IERC721Metadata-tokenURI}."
      },
      "transferFrom(address,address,uint256)": {
        "details": "See {IERC721-transferFrom}."
      },
      "transferOwnership(address)": {
        "details": "Transfers ownership of the contract to a new account (`newOwner`). Can only be called by the current owner."
      }
    },
    "title": "Mintpeg Contract",
    "version": 1
  },
  "userdoc": {
    "events": {
      "InitializedMintpeg(string,string,address,address,uint96)": {
        "notice": "Emmited on initialize()"
      },
      "RoyaltyInfoChanged(address,uint96)": {
        "notice": "Emmited on setRoyaltyInfo()"
      },
      "TokenRoyaltyInfoChanged(uint256,address,uint96)": {
        "notice": "Emmited on setTokenRoyaltyInfo()"
      }
    },
    "kind": "user",
    "methods": {
      "burn(uint256)": {
        "notice": "Function to burn a token"
      },
      "initialize(string,string,address,address,uint96)": {
        "notice": "Mintpeg initialization"
      },
      "mint(string[])": {
        "notice": "Function to mint new tokens"
      },
      "setRoyaltyInfo(address,uint96)": {
        "notice": "Function for changing royalty information"
      },
      "setTokenRoyaltyInfo(uint256,address,uint96)": {
        "notice": "Function for changing token royalty information"
      },
      "supportsInterface(bytes4)": {
        "notice": "Returns true if this contract implements the interface defined by `interfaceId`"
      }
    },
    "notice": "ERC721 contracts for artists to mint NFTs",
    "version": 1
  },
  "storageLayout": {
    "storage": [
      {
        "astId": 157,
        "contract": "contracts/Mintpeg.sol:Mintpeg",
        "label": "_initialized",
        "offset": 0,
        "slot": "0",
        "type": "t_uint8"
      },
      {
        "astId": 160,
        "contract": "contracts/Mintpeg.sol:Mintpeg",
        "label": "_initializing",
        "offset": 1,
        "slot": "0",
        "type": "t_bool"
      },
      {
        "astId": 2001,
        "contract": "contracts/Mintpeg.sol:Mintpeg",
        "label": "__gap",
        "offset": 0,
        "slot": "1",
        "type": "t_array(t_uint256)50_storage"
      },
      {
        "astId": 2271,
        "contract": "contracts/Mintpeg.sol:Mintpeg",
        "label": "__gap",
        "offset": 0,
        "slot": "51",
        "type": "t_array(t_uint256)50_storage"
      },
      {
        "astId": 330,
        "contract": "contracts/Mintpeg.sol:Mintpeg",
        "label": "_name",
        "offset": 0,
        "slot": "101",
        "type": "t_string_storage"
      },
      {
        "astId": 332,
        "contract": "contracts/Mintpeg.sol:Mintpeg",
        "label": "_symbol",
        "offset": 0,
        "slot": "102",
        "type": "t_string_storage"
      },
      {
        "astId": 336,
        "contract": "contracts/Mintpeg.sol:Mintpeg",
        "label": "_owners",
        "offset": 0,
        "slot": "103",
        "type": "t_mapping(t_uint256,t_address)"
      },
      {
        "astId": 340,
        "contract": "contracts/Mintpeg.sol:Mintpeg",
        "label": "_balances",
        "offset": 0,
        "slot": "104",
        "type": "t_mapping(t_address,t_uint256)"
      },
      {
        "astId": 344,
        "contract": "contracts/Mintpeg.sol:Mintpeg",
        "label": "_tokenApprovals",
        "offset": 0,
        "slot": "105",
        "type": "t_mapping(t_uint256,t_address)"
      },
      {
        "astId": 350,
        "contract": "contracts/Mintpeg.sol:Mintpeg",
        "label": "_operatorApprovals",
        "offset": 0,
        "slot": "106",
        "type": "t_mapping(t_address,t_mapping(t_address,t_bool))"
      },
      {
        "astId": 1192,
        "contract": "contracts/Mintpeg.sol:Mintpeg",
        "label": "__gap",
        "offset": 0,
        "slot": "107",
        "type": "t_array(t_uint256)44_storage"
      },
      {
        "astId": 1355,
        "contract": "contracts/Mintpeg.sol:Mintpeg",
        "label": "_tokenURIs",
        "offset": 0,
        "slot": "151",
        "type": "t_mapping(t_uint256,t_string_storage)"
      },
      {
        "astId": 1471,
        "contract": "contracts/Mintpeg.sol:Mintpeg",
        "label": "__gap",
        "offset": 0,
        "slot": "152",
        "type": "t_array(t_uint256)49_storage"
      },
      {
        "astId": 1531,
        "contract": "contracts/Mintpeg.sol:Mintpeg",
        "label": "_defaultRoyaltyInfo",
        "offset": 0,
        "slot": "201",
        "type": "t_struct(RoyaltyInfo)1528_storage"
      },
      {
        "astId": 1536,
        "contract": "contracts/Mintpeg.sol:Mintpeg",
        "label": "_tokenRoyaltyInfo",
        "offset": 0,
        "slot": "202",
        "type": "t_mapping(t_uint256,t_struct(RoyaltyInfo)1528_storage)"
      },
      {
        "astId": 1716,
        "contract": "contracts/Mintpeg.sol:Mintpeg",
        "label": "__gap",
        "offset": 0,
        "slot": "203",
        "type": "t_array(t_uint256)48_storage"
      },
      {
        "astId": 10,
        "contract": "contracts/Mintpeg.sol:Mintpeg",
        "label": "_owner",
        "offset": 0,
        "slot": "251",
        "type": "t_address"
      },
      {
        "astId": 130,
        "contract": "contracts/Mintpeg.sol:Mintpeg",
        "label": "__gap",
        "offset": 0,
        "slot": "252",
        "type": "t_array(t_uint256)49_storage"
      },
      {
        "astId": 2594,
        "contract": "contracts/Mintpeg.sol:Mintpeg",
        "label": "_tokenIds",
        "offset": 0,
        "slot": "301",
        "type": "t_struct(Counter)2505_storage"
      }
    ],
    "types": {
      "t_address": {
        "encoding": "inplace",
        "label": "address",
        "numberOfBytes": "20"
      },
      "t_array(t_uint256)44_storage": {
        "base": "t_uint256",
        "encoding": "inplace",
        "label": "uint256[44]",
        "numberOfBytes": "1408"
      },
      "t_array(t_uint256)48_storage": {
        "base": "t_uint256",
        "encoding": "inplace",
        "label": "uint256[48]",
        "numberOfBytes": "1536"
      },
      "t_array(t_uint256)49_storage": {
        "base": "t_uint256",
        "encoding": "inplace",
        "label": "uint256[49]",
        "numberOfBytes": "1568"
      },
      "t_array(t_uint256)50_storage": {
        "base": "t_uint256",
        "encoding": "inplace",
        "label": "uint256[50]",
        "numberOfBytes": "1600"
      },
      "t_bool": {
        "encoding": "inplace",
        "label": "bool",
        "numberOfBytes": "1"
      },
      "t_mapping(t_address,t_bool)": {
        "encoding": "mapping",
        "key": "t_address",
        "label": "mapping(address => bool)",
        "numberOfBytes": "32",
        "value": "t_bool"
      },
      "t_mapping(t_address,t_mapping(t_address,t_bool))": {
        "encoding": "mapping",
        "key": "t_address",
        "label": "mapping(address => mapping(address => bool))",
        "numberOfBytes": "32",
        "value": "t_mapping(t_address,t_bool)"
      },
      "t_mapping(t_address,t_uint256)": {
        "encoding": "mapping",
        "key": "t_address",
        "label": "mapping(address => uint256)",
        "numberOfBytes": "32",
        "value": "t_uint256"
      },
      "t_mapping(t_uint256,t_address)": {
        "encoding": "mapping",
        "key": "t_uint256",
        "label": "mapping(uint256 => address)",
        "numberOfBytes": "32",
        "value": "t_address"
      },
      "t_mapping(t_uint256,t_string_storage)": {
        "encoding": "mapping",
        "key": "t_uint256",
        "label": "mapping(uint256 => string)",
        "numberOfBytes": "32",
        "value": "t_string_storage"
      },
      "t_mapping(t_uint256,t_struct(RoyaltyInfo)1528_storage)": {
        "encoding": "mapping",
        "key": "t_uint256",
        "label": "mapping(uint256 => struct ERC2981Upgradeable.RoyaltyInfo)",
        "numberOfBytes": "32",
        "value": "t_struct(RoyaltyInfo)1528_storage"
      },
      "t_string_storage": {
        "encoding": "bytes",
        "label": "string",
        "numberOfBytes": "32"
      },
      "t_struct(Counter)2505_storage": {
        "encoding": "inplace",
        "label": "struct Counters.Counter",
        "members": [
          {
            "astId": 2504,
            "contract": "contracts/Mintpeg.sol:Mintpeg",
            "label": "_value",
            "offset": 0,
            "slot": "0",
            "type": "t_uint256"
          }
        ],
        "numberOfBytes": "32"
      },
      "t_struct(RoyaltyInfo)1528_storage": {
        "encoding": "inplace",
        "label": "struct ERC2981Upgradeable.RoyaltyInfo",
        "members": [
          {
            "astId": 1525,
            "contract": "contracts/Mintpeg.sol:Mintpeg",
            "label": "receiver",
            "offset": 0,
            "slot": "0",
            "type": "t_address"
          },
          {
            "astId": 1527,
            "contract": "contracts/Mintpeg.sol:Mintpeg",
            "label": "royaltyFraction",
            "offset": 20,
            "slot": "0",
            "type": "t_uint96"
          }
        ],
        "numberOfBytes": "32"
      },
      "t_uint256": {
        "encoding": "inplace",
        "label": "uint256",
        "numberOfBytes": "32"
      },
      "t_uint8": {
        "encoding": "inplace",
        "label": "uint8",
        "numberOfBytes": "1"
      },
      "t_uint96": {
        "encoding": "inplace",
        "label": "uint96",
        "numberOfBytes": "12"
      }
    }
  }
}