{
  "address": "0x5FbDB2315678afecb367f032d93F642f64180aa3",
  "abi": [
    {
      "inputs": [],
      "name": "Mintpeg__InvalidRoyaltyInfo",
      "type": "error"
    },
    {
      "inputs": [],
      "name": "Mintpeg__InvalidTokenOwner",
      "type": "error"
    },
    {
      "anonymous": false,
      "inputs": [
        {
          "indexed": true,
          "internalType": "address",
          "name": "owner",
          "type": "address"
        },
        {
          "indexed": true,
          "internalType": "address",
          "name": "approved",
          "type": "address"
        },
        {
          "indexed": true,
          "internalType": "uint256",
          "name": "tokenId",
          "type": "uint256"
        }
      ],
      "name": "Approval",
      "type": "event"
    },
    {
      "anonymous": false,
      "inputs": [
        {
          "indexed": true,
          "internalType": "address",
          "name": "owner",
          "type": "address"
        },
        {
          "indexed": true,
          "internalType": "address",
          "name": "operator",
          "type": "address"
        },
        {
          "indexed": false,
          "internalType": "bool",
          "name": "approved",
          "type": "bool"
        }
      ],
      "name": "ApprovalForAll",
      "type": "event"
    },
    {
      "anonymous": false,
      "inputs": [
        {
          "indexed": false,
          "internalType": "uint8",
          "name": "version",
          "type": "uint8"
        }
      ],
      "name": "Initialized",
      "type": "event"
    },
    {
      "anonymous": false,
      "inputs": [
        {
          "indexed": true,
          "internalType": "string",
          "name": "_collectionName",
          "type": "string"
        },
        {
          "indexed": true,
          "internalType": "string",
          "name": "_collectionSymbol",
          "type": "string"
        },
        {
          "indexed": true,
          "internalType": "address",
          "name": "_projectOwner",
          "type": "address"
        },
        {
          "indexed": false,
          "internalType": "address",
          "name": "_royaltyReceiver",
          "type": "address"
        },
        {
          "indexed": false,
          "internalType": "uint96",
          "name": "_feePercent",
          "type": "uint96"
        }
      ],
      "name": "InitializedMintpeg",
      "type": "event"
    },
    {
      "anonymous": false,
      "inputs": [
        {
          "indexed": true,
          "internalType": "address",
          "name": "previousOwner",
          "type": "address"
        },
        {
          "indexed": true,
          "internalType": "address",
          "name": "newOwner",
          "type": "address"
        }
      ],
      "name": "OwnershipTransferred",
      "type": "event"
    },
    {
      "anonymous": false,
      "inputs": [
        {
          "indexed": true,
          "internalType": "address",
          "name": "royaltyReceiver",
          "type": "address"
        },
        {
          "indexed": false,
          "internalType": "uint96",
          "name": "feePercent",
          "type": "uint96"
        }
      ],
      "name": "RoyaltyInfoChanged",
      "type": "event"
    },
    {
      "anonymous": false,
      "inputs": [
        {
          "indexed": false,
          "internalType": "uint256",
          "name": "tokenId",
          "type": "uint256"
        },
        {
          "indexed": true,
          "internalType": "address",
          "name": "royaltyReceiver",
          "type": "address"
        },
        {
          "indexed": false,
          "internalType": "uint96",
          "name": "feePercent",
          "type": "uint96"
        }
      ],
      "name": "TokenRoyaltyInfoChanged",
      "type": "event"
    },
    {
      "anonymous": false,
      "inputs": [
        {
          "indexed": true,
          "internalType": "address",
          "name": "from",
          "type": "address"
        },
        {
          "indexed": true,
          "internalType": "address",
          "name": "to",
          "type": "address"
        },
        {
          "indexed": true,
          "internalType": "uint256",
          "name": "tokenId",
          "type": "uint256"
        }
      ],
      "name": "Transfer",
      "type": "event"
    },
    {
      "inputs": [
        {
          "internalType": "address",
          "name": "to",
          "type": "address"
        },
        {
          "internalType": "uint256",
          "name": "tokenId",
          "type": "uint256"
        }
      ],
      "name": "approve",
      "outputs": [],
      "stateMutability": "nonpayable",
      "type": "function"
    },
    {
      "inputs": [
        {
          "internalType": "address",
          "name": "owner",
          "type": "address"
        }
      ],
      "name": "balanceOf",
      "outputs": [
        {
          "internalType": "uint256",
          "name": "",
          "type": "uint256"
        }
      ],
      "stateMutability": "view",
      "type": "function"
    },
    {
      "inputs": [
        {
          "internalType": "uint256",
          "name": "_tokenId",
          "type": "uint256"
        }
      ],
      "name": "burn",
      "outputs": [],
      "stateMutability": "nonpayable",
      "type": "function"
    },
    {
      "inputs": [
        {
          "internalType": "uint256",
          "name": "tokenId",
          "type": "uint256"
        }
      ],
      "name": "getApproved",
      "outputs": [
        {
          "internalType": "address",
          "name": "",
          "type": "address"
        }
      ],
      "stateMutability": "view",
      "type": "function"
    },
    {
      "inputs": [
        {
          "internalType": "string",
          "name": "_collectionName",
          "type": "string"
        },
        {
          "internalType": "string",
          "name": "_collectionSymbol",
          "type": "string"
        },
        {
          "internalType": "address",
          "name": "_royaltyReceiver",
          "type": "address"
        },
        {
          "internalType": "uint96",
          "name": "_feePercent",
          "type": "uint96"
        }
      ],
      "name": "initialize",
      "outputs": [],
      "stateMutability": "nonpayable",
      "type": "function"
    },
    {
      "inputs": [
        {
          "internalType": "address",
          "name": "owner",
          "type": "address"
        },
        {
          "internalType": "address",
          "name": "operator",
          "type": "address"
        }
      ],
      "name": "isApprovedForAll",
      "outputs": [
        {
          "internalType": "bool",
          "name": "",
          "type": "bool"
        }
      ],
      "stateMutability": "view",
      "type": "function"
    },
    {
      "inputs": [
        {
          "internalType": "string[]",
          "name": "_tokenURIs",
          "type": "string[]"
        }
      ],
      "name": "mint",
      "outputs": [],
      "stateMutability": "nonpayable",
      "type": "function"
    },
    {
      "inputs": [],
      "name": "name",
      "outputs": [
        {
          "internalType": "string",
          "name": "",
          "type": "string"
        }
      ],
      "stateMutability": "view",
      "type": "function"
    },
    {
      "inputs": [],
      "name": "owner",
      "outputs": [
        {
          "internalType": "address",
          "name": "",
          "type": "address"
        }
      ],
      "stateMutability": "view",
      "type": "function"
    },
    {
      "inputs": [
        {
          "internalType": "uint256",
          "name": "tokenId",
          "type": "uint256"
        }
      ],
      "name": "ownerOf",
      "outputs": [
        {
          "internalType": "address",
          "name": "",
          "type": "address"
        }
      ],
      "stateMutability": "view",
      "type": "function"
    },
    {
      "inputs": [],
      "name": "renounceOwnership",
      "outputs": [],
      "stateMutability": "nonpayable",
      "type": "function"
    },
    {
      "inputs": [
        {
          "internalType": "uint256",
          "name": "_tokenId",
          "type": "uint256"
        },
        {
          "internalType": "uint256",
          "name": "_salePrice",
          "type": "uint256"
        }
      ],
      "name": "royaltyInfo",
      "outputs": [
        {
          "internalType": "address",
          "name": "",
          "type": "address"
        },
        {
          "internalType": "uint256",
          "name": "",
          "type": "uint256"
        }
      ],
      "stateMutability": "view",
      "type": "function"
    },
    {
      "inputs": [
        {
          "internalType": "address",
          "name": "from",
          "type": "address"
        },
        {
          "internalType": "address",
          "name": "to",
          "type": "address"
        },
        {
          "internalType": "uint256",
          "name": "tokenId",
          "type": "uint256"
        }
      ],
      "name": "safeTransferFrom",
      "outputs": [],
      "stateMutability": "nonpayable",
      "type": "function"
    },
    {
      "inputs": [
        {
          "internalType": "address",
          "name": "from",
          "type": "address"
        },
        {
          "internalType": "address",
          "name": "to",
          "type": "address"
        },
        {
          "internalType": "uint256",
          "name": "tokenId",
          "type": "uint256"
        },
        {
          "internalType": "bytes",
          "name": "data",
          "type": "bytes"
        }
      ],
      "name": "safeTransferFrom",
      "outputs": [],
      "stateMutability": "nonpayable",
      "type": "function"
    },
    {
      "inputs": [
        {
          "internalType": "address",
          "name": "operator",
          "type": "address"
        },
        {
          "internalType": "bool",
          "name": "approved",
          "type": "bool"
        }
      ],
      "name": "setApprovalForAll",
      "outputs": [],
      "stateMutability": "nonpayable",
      "type": "function"
    },
    {
      "inputs": [
        {
          "internalType": "address",
          "name": "_royaltyReceiver",
          "type": "address"
        },
        {
          "internalType": "uint96",
          "name": "_feePercent",
          "type": "uint96"
        }
      ],
      "name": "setRoyaltyInfo",
      "outputs": [],
      "stateMutability": "nonpayable",
      "type": "function"
    },
    {
      "inputs": [
        {
          "internalType": "uint256",
          "name": "_tokenId",
          "type": "uint256"
        },
        {
          "internalType": "address",
          "name": "_royaltyReceiver",
          "type": "address"
        },
        {
          "internalType": "uint96",
          "name": "_feePercent",
          "type": "uint96"
        }
      ],
      "name": "setTokenRoyaltyInfo",
      "outputs": [],
      "stateMutability": "nonpayable",
      "type": "function"
    },
    {
      "inputs": [
        {
          "internalType": "bytes4",
          "name": "_interfaceId",
          "type": "bytes4"
        }
      ],
      "name": "supportsInterface",
      "outputs": [
        {
          "internalType": "bool",
          "name": "",
          "type": "bool"
        }
      ],
      "stateMutability": "view",
      "type": "function"
    },
    {
      "inputs": [],
      "name": "symbol",
      "outputs": [
        {
          "internalType": "string",
          "name": "",
          "type": "string"
        }
      ],
      "stateMutability": "view",
      "type": "function"
    },
    {
      "inputs": [
        {
          "internalType": "uint256",
          "name": "tokenId",
          "type": "uint256"
        }
      ],
      "name": "tokenURI",
      "outputs": [
        {
          "internalType": "string",
          "name": "",
          "type": "string"
        }
      ],
      "stateMutability": "view",
      "type": "function"
    },
    {
      "inputs": [
        {
          "internalType": "address",
          "name": "from",
          "type": "address"
        },
        {
          "internalType": "address",
          "name": "to",
          "type": "address"
        },
        {
          "internalType": "uint256",
          "name": "tokenId",
          "type": "uint256"
        }
      ],
      "name": "transferFrom",
      "outputs": [],
      "stateMutability": "nonpayable",
      "type": "function"
    },
    {
      "inputs": [
        {
          "internalType": "address",
          "name": "newOwner",
          "type": "address"
        }
      ],
      "name": "transferOwnership",
      "outputs": [],
      "stateMutability": "nonpayable",
      "type": "function"
    }
  ],
  "transactionHash": "0xfacfdc7736a390bb272b3431c8a6449af2bdd5b2a6c002f7dc50d66fbf294854",
  "args": [],
  "numDeployments": 1,
  "solcInputHash": "93c17f3e8b4e3096401f4124de24db5e",
  "bytecode": "0x608060405234801561001057600080fd5b50612242806100206000396000f3fe608060405234801561001057600080fd5b50600436106101425760003560e01c806370a08231116100b8578063b7e31add1161007c578063b7e31add146102bd578063b88d4fde146102d0578063b8f73003146102e3578063c87b56dd146102f6578063e985e9c514610309578063f2fde38b1461034557600080fd5b806370a0823114610268578063715018a6146102895780638da5cb5b1461029157806395d89b41146102a2578063a22cb465146102aa57600080fd5b806323b872dd1161010a57806323b872dd146101d75780632a55205a146101ea57806342842e0e1461021c57806342966c681461022f5780635768f271146102425780636352211e1461025557600080fd5b806301ffc9a71461014757806302fa7c471461016f57806306fdde0314610184578063081812fc14610199578063095ea7b3146101c4575b600080fd5b61015a610155366004611d61565b610358565b60405190151581526020015b60405180910390f35b61018261017d366004611c76565b610387565b005b61018c610410565b6040516101669190611f43565b6101ac6101a7366004611e1b565b6104a2565b6040516001600160a01b039091168152602001610166565b6101826101d2366004611c4d565b6104c9565b6101826101e5366004611b5f565b6105e4565b6101fd6101f8366004611e6e565b610615565b604080516001600160a01b039093168352602083019190915201610166565b61018261022a366004611b5f565b6106c1565b61018261023d366004611e1b565b6106dc565b610182610250366004611c9f565b61072a565b6101ac610263366004611e1b565b6107a1565b61027b610276366004611b13565b610801565b604051908152602001610166565b610182610887565b60fb546001600160a01b03166101ac565b61018c61089b565b6101826102b8366004611c13565b6108aa565b6101826102cb366004611d99565b6108b9565b6101826102de366004611b9a565b610a61565b6101826102f1366004611e33565b610a99565b61018c610304366004611e1b565b610b29565b61015a610317366004611b2d565b6001600160a01b039182166000908152606a6020908152604080832093909416825291909152205460ff1690565b610182610353366004611b13565b610c3a565b600061036382610cb0565b80610372575061037282610d00565b80610381575061038182610d00565b92915050565b61038f610d25565b6109c4816001600160601b031611156103bb576040516333f2314d60e11b815260040160405180910390fd5b6103c58282610d7f565b6040516001600160601b03821681526001600160a01b038316907f649787d44a877bdd8d255fbfdaba9927f56be0ec7aae8fb86cd16841966479d29060200160405180910390a25050565b60606065805461041f9061214a565b80601f016020809104026020016040519081016040528092919081815260200182805461044b9061214a565b80156104985780601f1061046d57610100808354040283529160200191610498565b820191906000526020600020905b81548152906001019060200180831161047b57829003601f168201915b5050505050905090565b60006104ad82610e39565b506000908152606960205260409020546001600160a01b031690565b60006104d4826107a1565b9050806001600160a01b0316836001600160a01b031614156105475760405162461bcd60e51b815260206004820152602160248201527f4552433732313a20617070726f76616c20746f2063757272656e74206f776e656044820152603960f91b60648201526084015b60405180910390fd5b336001600160a01b038216148061056357506105638133610317565b6105d55760405162461bcd60e51b815260206004820152603e60248201527f4552433732313a20617070726f76652063616c6c6572206973206e6f7420746f60448201527f6b656e206f776e6572206e6f7220617070726f76656420666f7220616c6c0000606482015260840161053e565b6105df8383610e98565b505050565b6105ee3382610f06565b61060a5760405162461bcd60e51b815260040161053e9061203d565b6105df838383610f84565b600082815260ca602090815260408083208151808301909252546001600160a01b038116808352600160a01b9091046001600160601b031692820192909252829161068a57506040805180820190915260c9546001600160a01b0381168252600160a01b90046001600160601b031660208201525b6020810151600090612710906106a9906001600160601b0316876120e8565b6106b391906120d4565b915196919550909350505050565b6105df83838360405180602001604052806000815250610a61565b336106e6826107a1565b6001600160a01b03161461070d5760405163eeaa790560e01b815260040160405180910390fd5b61071681611120565b600090815260ca6020526040812055565b50565b610732610d25565b6000805b82518110156105df5761012d54915061075461012d80546001019055565b61075e3383611160565b61078f8284838151811061078257634e487b7160e01b600052603260045260246000fd5b60200260200101516112a2565b8061079981612185565b915050610736565b6000818152606760205260408120546001600160a01b0316806103815760405162461bcd60e51b8152602060048201526018602482015277115490cdcc8c4e881a5b9d985b1a59081d1bdad95b88125160421b604482015260640161053e565b60006001600160a01b03821661086b5760405162461bcd60e51b815260206004820152602960248201527f4552433732313a2061646472657373207a65726f206973206e6f7420612076616044820152683634b21037bbb732b960b91b606482015260840161053e565b506001600160a01b031660009081526068602052604090205490565b61088f610d25565b610899600061133c565b565b60606066805461041f9061214a565b6108b533838361138e565b5050565b600054610100900460ff16158080156108d95750600054600160ff909116105b806108f35750303b1580156108f3575060005460ff166001145b6109565760405162461bcd60e51b815260206004820152602e60248201527f496e697469616c697a61626c653a20636f6e747261637420697320616c72656160448201526d191e481a5b9a5d1a585b1a5e995960921b606482015260840161053e565b6000805460ff191660011790558015610979576000805461ff0019166101001790555b61098161145d565b61098961148c565b61099385856114b3565b61099d8383610387565b60405133906109ad908690611ebb565b6040518091039020866040516109c39190611ebb565b604080519182900382206001600160a01b03881683526001600160601b0387166020840152917fb1b873058c2281a857e99160de508f1e36f6fbbeca6de3a45bf8316ff91ead78910160405180910390a48015610a5a576000805461ff0019169055604051600181527f7f26b83ff96e1f2b6a682f133852f6798a09c465da95921460cefb38474024989060200160405180910390a15b5050505050565b610a6b3383610f06565b610a875760405162461bcd60e51b815260040161053e9061203d565b610a93848484846114e4565b50505050565b610aa1610d25565b6109c4816001600160601b03161115610acd576040516333f2314d60e11b815260040160405180910390fd5b610ad8838383611517565b604080518481526001600160601b03831660208201526001600160a01b038416917f6b487ddd0efdbfd7606e8030e43550f55602ad00f641f939c333b8731daca8a2910160405180910390a2505050565b6060610b3482610e39565b60008281526097602052604081208054610b4d9061214a565b80601f0160208091040260200160405190810160405280929190818152602001828054610b799061214a565b8015610bc65780601f10610b9b57610100808354040283529160200191610bc6565b820191906000526020600020905b815481529060010190602001808311610ba957829003601f168201915b505050505090506000610be460408051602081019091526000815290565b9050805160001415610bf7575092915050565b815115610c29578082604051602001610c11929190611ed7565b60405160208183030381529060405292505050919050565b610c32846115e2565b949350505050565b610c42610d25565b6001600160a01b038116610ca75760405162461bcd60e51b815260206004820152602660248201527f4f776e61626c653a206e6577206f776e657220697320746865207a65726f206160448201526564647265737360d01b606482015260840161053e565b6107278161133c565b60006001600160e01b031982166380ac58cd60e01b1480610ce157506001600160e01b03198216635b5e139f60e01b145b8061038157506301ffc9a760e01b6001600160e01b0319831614610381565b60006001600160e01b0319821663152a902d60e11b1480610381575061038182610cb0565b60fb546001600160a01b031633146108995760405162461bcd60e51b815260206004820181905260248201527f4f776e61626c653a2063616c6c6572206973206e6f7420746865206f776e6572604482015260640161053e565b6127106001600160601b0382161115610daa5760405162461bcd60e51b815260040161053e90611ff3565b6001600160a01b038216610e005760405162461bcd60e51b815260206004820152601960248201527f455243323938313a20696e76616c696420726563656976657200000000000000604482015260640161053e565b604080518082019091526001600160a01b039092168083526001600160601b039091166020909201829052600160a01b9091021760c955565b6000818152606760205260409020546001600160a01b03166107275760405162461bcd60e51b8152602060048201526018602482015277115490cdcc8c4e881a5b9d985b1a59081d1bdad95b88125160421b604482015260640161053e565b600081815260696020526040902080546001600160a01b0319166001600160a01b0384169081179091558190610ecd826107a1565b6001600160a01b03167f8c5be1e5ebec7d5bd14f71427d1e84f3dd0314c0f7b2291e5b200ac8c7c3b92560405160405180910390a45050565b600080610f12836107a1565b9050806001600160a01b0316846001600160a01b03161480610f5957506001600160a01b038082166000908152606a602090815260408083209388168352929052205460ff165b80610c325750836001600160a01b0316610f72846104a2565b6001600160a01b031614949350505050565b826001600160a01b0316610f97826107a1565b6001600160a01b031614610ffb5760405162461bcd60e51b815260206004820152602560248201527f4552433732313a207472616e736665722066726f6d20696e636f72726563742060448201526437bbb732b960d91b606482015260840161053e565b6001600160a01b03821661105d5760405162461bcd60e51b8152602060048201526024808201527f4552433732313a207472616e7366657220746f20746865207a65726f206164646044820152637265737360e01b606482015260840161053e565b611068600082610e98565b6001600160a01b0383166000908152606860205260408120805460019290611091908490612107565b90915550506001600160a01b03821660009081526068602052604081208054600192906110bf9084906120bc565b909155505060008181526067602052604080822080546001600160a01b0319166001600160a01b0386811691821790925591518493918716917fddf252ad1be2c89b69c2b068fc378daa952ba7f163c4a11628f55a4df523b3ef91a4505050565b61112981611656565b600081815260976020526040902080546111429061214a565b15905061072757600081815260976020526040812061072791611996565b6001600160a01b0382166111b65760405162461bcd60e51b815260206004820181905260248201527f4552433732313a206d696e7420746f20746865207a65726f2061646472657373604482015260640161053e565b6000818152606760205260409020546001600160a01b03161561121b5760405162461bcd60e51b815260206004820152601c60248201527f4552433732313a20746f6b656e20616c7265616479206d696e74656400000000604482015260640161053e565b6001600160a01b03821660009081526068602052604081208054600192906112449084906120bc565b909155505060008181526067602052604080822080546001600160a01b0319166001600160a01b03861690811790915590518392907fddf252ad1be2c89b69c2b068fc378daa952ba7f163c4a11628f55a4df523b3ef908290a45050565b6000828152606760205260409020546001600160a01b031661131d5760405162461bcd60e51b815260206004820152602e60248201527f45524337323155524953746f726167653a2055524920736574206f66206e6f6e60448201526d32bc34b9ba32b73a103a37b5b2b760911b606482015260840161053e565b600082815260976020908152604090912082516105df928401906119d0565b60fb80546001600160a01b038381166001600160a01b0319831681179093556040519116919082907f8be0079c531659141344cd1fd0a4f28419497f9722a3daafe3b4186f6b6457e090600090a35050565b816001600160a01b0316836001600160a01b031614156113f05760405162461bcd60e51b815260206004820152601960248201527f4552433732313a20617070726f766520746f2063616c6c657200000000000000604482015260640161053e565b6001600160a01b038381166000818152606a6020908152604080832094871680845294825291829020805460ff191686151590811790915591519182527f17307eab39ab6107e8899845ad3d59bd9653f200f220920489ca2b5937696c31910160405180910390a3505050565b600054610100900460ff166114845760405162461bcd60e51b815260040161053e90611fa8565b6108996116f1565b600054610100900460ff166108995760405162461bcd60e51b815260040161053e90611fa8565b600054610100900460ff166114da5760405162461bcd60e51b815260040161053e90611fa8565b6108b58282611721565b6114ef848484610f84565b6114fb8484848461176f565b610a935760405162461bcd60e51b815260040161053e90611f56565b6127106001600160601b03821611156115425760405162461bcd60e51b815260040161053e90611ff3565b6001600160a01b0382166115985760405162461bcd60e51b815260206004820152601b60248201527f455243323938313a20496e76616c696420706172616d65746572730000000000604482015260640161053e565b6040805180820182526001600160a01b0393841681526001600160601b039283166020808301918252600096875260ca90529190942093519051909116600160a01b029116179055565b60606115ed82610e39565b600061160460408051602081019091526000815290565b90506000815111611624576040518060200160405280600081525061164f565b8061162e8461187c565b60405160200161163f929190611ed7565b6040516020818303038152906040525b9392505050565b6000611661826107a1565b905061166e600083610e98565b6001600160a01b0381166000908152606860205260408120805460019290611697908490612107565b909155505060008281526067602052604080822080546001600160a01b0319169055518391906001600160a01b038416907fddf252ad1be2c89b69c2b068fc378daa952ba7f163c4a11628f55a4df523b3ef908390a45050565b600054610100900460ff166117185760405162461bcd60e51b815260040161053e90611fa8565b6108993361133c565b600054610100900460ff166117485760405162461bcd60e51b815260040161053e90611fa8565b815161175b9060659060208501906119d0565b5080516105df9060669060208401906119d0565b60006001600160a01b0384163b1561187157604051630a85bd0160e11b81526001600160a01b0385169063150b7a02906117b3903390899088908890600401611f06565b602060405180830381600087803b1580156117cd57600080fd5b505af19250505080156117fd575060408051601f3d908101601f191682019092526117fa91810190611d7d565b60015b611857573d80801561182b576040519150601f19603f3d011682016040523d82523d6000602084013e611830565b606091505b50805161184f5760405162461bcd60e51b815260040161053e90611f56565b805181602001fd5b6001600160e01b031916630a85bd0160e11b149050610c32565b506001949350505050565b6060816118a05750506040805180820190915260018152600360fc1b602082015290565b8160005b81156118ca57806118b481612185565b91506118c39050600a836120d4565b91506118a4565b60008167ffffffffffffffff8111156118f357634e487b7160e01b600052604160045260246000fd5b6040519080825280601f01601f19166020018201604052801561191d576020820181803683370190505b5090505b8415610c3257611932600183612107565b915061193f600a866121a0565b61194a9060306120bc565b60f81b81838151811061196d57634e487b7160e01b600052603260045260246000fd5b60200101906001600160f81b031916908160001a90535061198f600a866120d4565b9450611921565b5080546119a29061214a565b6000825580601f106119b2575050565b601f0160209004906000526020600020908101906107279190611a54565b8280546119dc9061214a565b90600052602060002090601f0160209004810192826119fe5760008555611a44565b82601f10611a1757805160ff1916838001178555611a44565b82800160010185558215611a44579182015b82811115611a44578251825591602001919060010190611a29565b50611a50929150611a54565b5090565b5b80821115611a505760008155600101611a55565b600067ffffffffffffffff831115611a8357611a836121e0565b611a96601f8401601f191660200161208b565b9050828152838383011115611aaa57600080fd5b828260208301376000602084830101529392505050565b80356001600160a01b0381168114611ad857600080fd5b919050565b600082601f830112611aed578081fd5b61164f83833560208501611a69565b80356001600160601b0381168114611ad857600080fd5b600060208284031215611b24578081fd5b61164f82611ac1565b60008060408385031215611b3f578081fd5b611b4883611ac1565b9150611b5660208401611ac1565b90509250929050565b600080600060608486031215611b73578081fd5b611b7c84611ac1565b9250611b8a60208501611ac1565b9150604084013590509250925092565b60008060008060808587031215611baf578081fd5b611bb885611ac1565b9350611bc660208601611ac1565b925060408501359150606085013567ffffffffffffffff811115611be8578182fd5b8501601f81018713611bf8578182fd5b611c0787823560208401611a69565b91505092959194509250565b60008060408385031215611c25578182fd5b611c2e83611ac1565b915060208301358015158114611c42578182fd5b809150509250929050565b60008060408385031215611c5f578182fd5b611c6883611ac1565b946020939093013593505050565b60008060408385031215611c88578182fd5b611c9183611ac1565b9150611b5660208401611afc565b60006020808385031215611cb1578182fd5b823567ffffffffffffffff80821115611cc8578384fd5b818501915085601f830112611cdb578384fd5b813581811115611ced57611ced6121e0565b8060051b611cfc85820161208b565b8281528581019085870183870188018b1015611d16578889fd5b8893505b84841015611d5357803586811115611d3057898afd5b611d3e8c8a838b0101611add565b84525060019390930192918701918701611d1a565b509998505050505050505050565b600060208284031215611d72578081fd5b813561164f816121f6565b600060208284031215611d8e578081fd5b815161164f816121f6565b60008060008060808587031215611dae578384fd5b843567ffffffffffffffff80821115611dc5578586fd5b611dd188838901611add565b95506020870135915080821115611de6578485fd5b50611df387828801611add565b935050611e0260408601611ac1565b9150611e1060608601611afc565b905092959194509250565b600060208284031215611e2c578081fd5b5035919050565b600080600060608486031215611e47578081fd5b83359250611e5760208501611ac1565b9150611e6560408501611afc565b90509250925092565b60008060408385031215611e80578182fd5b50508035926020909101359150565b60008151808452611ea781602086016020860161211e565b601f01601f19169290920160200192915050565b60008251611ecd81846020870161211e565b9190910192915050565b60008351611ee981846020880161211e565b835190830190611efd81836020880161211e565b01949350505050565b6001600160a01b0385811682528416602082015260408101839052608060608201819052600090611f3990830184611e8f565b9695505050505050565b60208152600061164f6020830184611e8f565b60208082526032908201527f4552433732313a207472616e7366657220746f206e6f6e20455243373231526560408201527131b2b4bb32b91034b6b83632b6b2b73a32b960711b606082015260800190565b6020808252602b908201527f496e697469616c697a61626c653a20636f6e7472616374206973206e6f74206960408201526a6e697469616c697a696e6760a81b606082015260800190565b6020808252602a908201527f455243323938313a20726f79616c7479206665652077696c6c206578636565646040820152692073616c65507269636560b01b606082015260800190565b6020808252602e908201527f4552433732313a2063616c6c6572206973206e6f7420746f6b656e206f776e6560408201526d1c881b9bdc88185c1c1c9bdd995960921b606082015260800190565b604051601f8201601f1916810167ffffffffffffffff811182821017156120b4576120b46121e0565b604052919050565b600082198211156120cf576120cf6121b4565b500190565b6000826120e3576120e36121ca565b500490565b6000816000190483118215151615612102576121026121b4565b500290565b600082821015612119576121196121b4565b500390565b60005b83811015612139578181015183820152602001612121565b83811115610a935750506000910152565b600181811c9082168061215e57607f821691505b6020821081141561217f57634e487b7160e01b600052602260045260246000fd5b50919050565b6000600019821415612199576121996121b4565b5060010190565b6000826121af576121af6121ca565b500690565b634e487b7160e01b600052601160045260246000fd5b634e487b7160e01b600052601260045260246000fd5b634e487b7160e01b600052604160045260246000fd5b6001600160e01b03198116811461072757600080fdfea2646970667358221220c5f8e86188de082c7ca96b800a7e6b4c3de6acba358100d33adb060ee3dbb94564736f6c63430008040033",
  "devdoc": {
    "author": "Trader Joe",
    "events": {
      "InitializedMintpeg(string,string,address,address,uint96)": {
        "params": {
          "_collectionName": "ERC721 name",
          "_collectionSymbol": "ERC721 symbol",
          "_feePercent": "Royalty fee numerator; denominator is 10,000. So 500 represents 5%",
          "_projectOwner": "function caller",
          "_royaltyReceiver": "Royalty fee collector"
        }
      },
      "RoyaltyInfoChanged(address,uint96)": {
        "params": {
          "feePercent": "Royalty fee numerator; denominator is 10,000. So 500 represents 5%",
          "royaltyReceiver": "Royalty fee collector"
        }
      },
      "TokenRoyaltyInfoChanged(uint256,address,uint96)": {
        "params": {
          "feePercent": "Royalty fee numerator; denominator is 10,000. So 500 represents 5%",
          "royaltyReceiver": "Royalty fee collector",
          "tokenId": "Token ID royalty to be set"
        }
      }
    },
    "kind": "dev",
    "methods": {
      "approve(address,uint256)": {
        "details": "See {IERC721-approve}."
      },
      "balanceOf(address)": {
        "details": "See {IERC721-balanceOf}."
      },
      "burn(uint256)": {
        "details": "Can only be called by token owner",
        "params": {
          "_tokenId": "Token ID to be burnt"
        }
      },
      "getApproved(uint256)": {
        "details": "See {IERC721-getApproved}."
      },
      "initialize(string,string,address,uint96)": {
        "params": {
          "_collectionName": "ERC721 name",
          "_collectionSymbol": "ERC721 symbol",
          "_feePercent": "Royalty fee numerator; denominator is 10,000. So 500 represents 5%",
          "_royaltyReceiver": "Royalty fee collector"
        }
      },
      "isApprovedForAll(address,address)": {
        "details": "See {IERC721-isApprovedForAll}."
      },
      "mint(string[])": {
        "details": "Can only be called by project owner",
        "params": {
          "_tokenURIs": "Array of tokenURIs (probably IPFS) of the tokenIds to be minted"
        }
      },
      "name()": {
        "details": "See {IERC721Metadata-name}."
      },
      "owner()": {
        "details": "Returns the address of the current owner."
      },
      "ownerOf(uint256)": {
        "details": "See {IERC721-ownerOf}."
      },
      "renounceOwnership()": {
        "details": "Leaves the contract without owner. It will not be possible to call `onlyOwner` functions anymore. Can only be called by the current owner. NOTE: Renouncing ownership will leave the contract without an owner, thereby removing any functionality that is only available to the owner."
      },
      "royaltyInfo(uint256,uint256)": {
        "details": "Returns how much royalty is owed and to whom, based on a sale price that may be denominated in any unit of exchange. The royalty amount is denominated and should be paid in that same unit of exchange."
      },
      "safeTransferFrom(address,address,uint256)": {
        "details": "See {IERC721-safeTransferFrom}."
      },
      "safeTransferFrom(address,address,uint256,bytes)": {
        "details": "See {IERC721-safeTransferFrom}."
      },
      "setApprovalForAll(address,bool)": {
        "details": "See {IERC721-setApprovalForAll}."
      },
      "setRoyaltyInfo(address,uint96)": {
        "details": "Can only be called by project ownerowner can prevent any sale by setting the address to any address that can't receive AVAX.",
        "params": {
          "_feePercent": "Royalty fee numerator; denominator is 10,000. So 500 represents 5%",
          "_royaltyReceiver": "Royalty fee collector"
        }
      },
      "setTokenRoyaltyInfo(uint256,address,uint96)": {
        "details": "Can only be called by project ownerowner can prevent any sale by setting the address to any address that can't receive AVAX.",
        "params": {
          "_feePercent": "Royalty fee numerator; denominator is 10,000. So 500 represents 5%",
          "_royaltyReceiver": "Royalty fee collector",
          "_tokenId": "Token ID royalty to be set"
        }
      },
      "supportsInterface(bytes4)": {
        "details": "Needs to be overridden cause two base contracts implement it",
        "params": {
          "_interfaceId": "InterfaceId to consider. Comes from type(InterfaceContract).interfaceId"
        },
        "returns": {
          "_0": "bool True if the considered interface is supported"
        }
      },
      "symbol()": {
        "details": "See {IERC721Metadata-symbol}."
      },
      "tokenURI(uint256)": {
        "details": "See {IERC721Metadata-tokenURI}."
      },
      "transferFrom(address,address,uint256)": {
        "details": "See {IERC721-transferFrom}."
      },
      "transferOwnership(address)": {
        "details": "Transfers ownership of the contract to a new account (`newOwner`). Can only be called by the current owner."
      }
    },
    "title": "Mintpeg Contract",
    "version": 1
  },
  "userdoc": {
    "events": {
      "InitializedMintpeg(string,string,address,address,uint96)": {
        "notice": "Emmited on initialize()"
      },
      "RoyaltyInfoChanged(address,uint96)": {
        "notice": "Emmited on setRoyaltyInfo()"
      },
      "TokenRoyaltyInfoChanged(uint256,address,uint96)": {
        "notice": "Emmited on setTokenRoyaltyInfo()"
      }
    },
    "kind": "user",
    "methods": {
      "burn(uint256)": {
        "notice": "Function to burn a token"
      },
      "initialize(string,string,address,uint96)": {
        "notice": "Mintpeg initialization"
      },
      "mint(string[])": {
        "notice": "Function to mint new tokens"
      },
      "setRoyaltyInfo(address,uint96)": {
        "notice": "Function for changing royalty information"
      },
      "setTokenRoyaltyInfo(uint256,address,uint96)": {
        "notice": "Function for changing token royalty information"
      },
      "supportsInterface(bytes4)": {
        "notice": "Returns true if this contract implements the interface defined by `interfaceId`"
      }
    },
    "notice": "ERC721 contracts for artists to mint NFTs",
    "version": 1
  },
  "storageLayout": {
    "storage": [
      {
        "astId": 157,
        "contract": "contracts/Mintpeg.sol:Mintpeg",
        "label": "_initialized",
        "offset": 0,
        "slot": "0",
        "type": "t_uint8"
      },
      {
        "astId": 160,
        "contract": "contracts/Mintpeg.sol:Mintpeg",
        "label": "_initializing",
        "offset": 1,
        "slot": "0",
        "type": "t_bool"
      },
      {
        "astId": 2001,
        "contract": "contracts/Mintpeg.sol:Mintpeg",
        "label": "__gap",
        "offset": 0,
        "slot": "1",
        "type": "t_array(t_uint256)50_storage"
      },
      {
        "astId": 2271,
        "contract": "contracts/Mintpeg.sol:Mintpeg",
        "label": "__gap",
        "offset": 0,
        "slot": "51",
        "type": "t_array(t_uint256)50_storage"
      },
      {
        "astId": 330,
        "contract": "contracts/Mintpeg.sol:Mintpeg",
        "label": "_name",
        "offset": 0,
        "slot": "101",
        "type": "t_string_storage"
      },
      {
        "astId": 332,
        "contract": "contracts/Mintpeg.sol:Mintpeg",
        "label": "_symbol",
        "offset": 0,
        "slot": "102",
        "type": "t_string_storage"
      },
      {
        "astId": 336,
        "contract": "contracts/Mintpeg.sol:Mintpeg",
        "label": "_owners",
        "offset": 0,
        "slot": "103",
        "type": "t_mapping(t_uint256,t_address)"
      },
      {
        "astId": 340,
        "contract": "contracts/Mintpeg.sol:Mintpeg",
        "label": "_balances",
        "offset": 0,
        "slot": "104",
        "type": "t_mapping(t_address,t_uint256)"
      },
      {
        "astId": 344,
        "contract": "contracts/Mintpeg.sol:Mintpeg",
        "label": "_tokenApprovals",
        "offset": 0,
        "slot": "105",
        "type": "t_mapping(t_uint256,t_address)"
      },
      {
        "astId": 350,
        "contract": "contracts/Mintpeg.sol:Mintpeg",
        "label": "_operatorApprovals",
        "offset": 0,
        "slot": "106",
        "type": "t_mapping(t_address,t_mapping(t_address,t_bool))"
      },
      {
        "astId": 1192,
        "contract": "contracts/Mintpeg.sol:Mintpeg",
        "label": "__gap",
        "offset": 0,
        "slot": "107",
        "type": "t_array(t_uint256)44_storage"
      },
      {
        "astId": 1355,
        "contract": "contracts/Mintpeg.sol:Mintpeg",
        "label": "_tokenURIs",
        "offset": 0,
        "slot": "151",
        "type": "t_mapping(t_uint256,t_string_storage)"
      },
      {
        "astId": 1471,
        "contract": "contracts/Mintpeg.sol:Mintpeg",
        "label": "__gap",
        "offset": 0,
        "slot": "152",
        "type": "t_array(t_uint256)49_storage"
      },
      {
        "astId": 1531,
        "contract": "contracts/Mintpeg.sol:Mintpeg",
        "label": "_defaultRoyaltyInfo",
        "offset": 0,
        "slot": "201",
        "type": "t_struct(RoyaltyInfo)1528_storage"
      },
      {
        "astId": 1536,
        "contract": "contracts/Mintpeg.sol:Mintpeg",
        "label": "_tokenRoyaltyInfo",
        "offset": 0,
        "slot": "202",
        "type": "t_mapping(t_uint256,t_struct(RoyaltyInfo)1528_storage)"
      },
      {
        "astId": 1716,
        "contract": "contracts/Mintpeg.sol:Mintpeg",
        "label": "__gap",
        "offset": 0,
        "slot": "203",
        "type": "t_array(t_uint256)48_storage"
      },
      {
        "astId": 10,
        "contract": "contracts/Mintpeg.sol:Mintpeg",
        "label": "_owner",
        "offset": 0,
        "slot": "251",
        "type": "t_address"
      },
      {
        "astId": 130,
        "contract": "contracts/Mintpeg.sol:Mintpeg",
        "label": "__gap",
        "offset": 0,
        "slot": "252",
        "type": "t_array(t_uint256)49_storage"
      },
      {
        "astId": 2594,
        "contract": "contracts/Mintpeg.sol:Mintpeg",
        "label": "_tokenIds",
        "offset": 0,
        "slot": "301",
        "type": "t_struct(Counter)2505_storage"
      }
    ],
    "types": {
      "t_address": {
        "encoding": "inplace",
        "label": "address",
        "numberOfBytes": "20"
      },
      "t_array(t_uint256)44_storage": {
        "base": "t_uint256",
        "encoding": "inplace",
        "label": "uint256[44]",
        "numberOfBytes": "1408"
      },
      "t_array(t_uint256)48_storage": {
        "base": "t_uint256",
        "encoding": "inplace",
        "label": "uint256[48]",
        "numberOfBytes": "1536"
      },
      "t_array(t_uint256)49_storage": {
        "base": "t_uint256",
        "encoding": "inplace",
        "label": "uint256[49]",
        "numberOfBytes": "1568"
      },
      "t_array(t_uint256)50_storage": {
        "base": "t_uint256",
        "encoding": "inplace",
        "label": "uint256[50]",
        "numberOfBytes": "1600"
      },
      "t_bool": {
        "encoding": "inplace",
        "label": "bool",
        "numberOfBytes": "1"
      },
      "t_mapping(t_address,t_bool)": {
        "encoding": "mapping",
        "key": "t_address",
        "label": "mapping(address => bool)",
        "numberOfBytes": "32",
        "value": "t_bool"
      },
      "t_mapping(t_address,t_mapping(t_address,t_bool))": {
        "encoding": "mapping",
        "key": "t_address",
        "label": "mapping(address => mapping(address => bool))",
        "numberOfBytes": "32",
        "value": "t_mapping(t_address,t_bool)"
      },
      "t_mapping(t_address,t_uint256)": {
        "encoding": "mapping",
        "key": "t_address",
        "label": "mapping(address => uint256)",
        "numberOfBytes": "32",
        "value": "t_uint256"
      },
      "t_mapping(t_uint256,t_address)": {
        "encoding": "mapping",
        "key": "t_uint256",
        "label": "mapping(uint256 => address)",
        "numberOfBytes": "32",
        "value": "t_address"
      },
      "t_mapping(t_uint256,t_string_storage)": {
        "encoding": "mapping",
        "key": "t_uint256",
        "label": "mapping(uint256 => string)",
        "numberOfBytes": "32",
        "value": "t_string_storage"
      },
      "t_mapping(t_uint256,t_struct(RoyaltyInfo)1528_storage)": {
        "encoding": "mapping",
        "key": "t_uint256",
        "label": "mapping(uint256 => struct ERC2981Upgradeable.RoyaltyInfo)",
        "numberOfBytes": "32",
        "value": "t_struct(RoyaltyInfo)1528_storage"
      },
      "t_string_storage": {
        "encoding": "bytes",
        "label": "string",
        "numberOfBytes": "32"
      },
      "t_struct(Counter)2505_storage": {
        "encoding": "inplace",
        "label": "struct Counters.Counter",
        "members": [
          {
            "astId": 2504,
            "contract": "contracts/Mintpeg.sol:Mintpeg",
            "label": "_value",
            "offset": 0,
            "slot": "0",
            "type": "t_uint256"
          }
        ],
        "numberOfBytes": "32"
      },
      "t_struct(RoyaltyInfo)1528_storage": {
        "encoding": "inplace",
        "label": "struct ERC2981Upgradeable.RoyaltyInfo",
        "members": [
          {
            "astId": 1525,
            "contract": "contracts/Mintpeg.sol:Mintpeg",
            "label": "receiver",
            "offset": 0,
            "slot": "0",
            "type": "t_address"
          },
          {
            "astId": 1527,
            "contract": "contracts/Mintpeg.sol:Mintpeg",
            "label": "royaltyFraction",
            "offset": 20,
            "slot": "0",
            "type": "t_uint96"
          }
        ],
        "numberOfBytes": "32"
      },
      "t_uint256": {
        "encoding": "inplace",
        "label": "uint256",
        "numberOfBytes": "32"
      },
      "t_uint8": {
        "encoding": "inplace",
        "label": "uint8",
        "numberOfBytes": "1"
      },
      "t_uint96": {
        "encoding": "inplace",
        "label": "uint96",
        "numberOfBytes": "12"
      }
    }
  }
}