{
  "address": "0xB78C90553070ca49aF46E6CFC3bd8B9FCdF31863",
  "abi": [
    {
      "inputs": [],
      "name": "Mintpeg__InvalidRoyaltyInfo",
      "type": "error"
    },
    {
      "inputs": [],
      "name": "Mintpeg__InvalidTokenOwner",
      "type": "error"
    },
    {
      "anonymous": false,
      "inputs": [
        {
          "indexed": true,
          "internalType": "address",
          "name": "owner",
          "type": "address"
        },
        {
          "indexed": true,
          "internalType": "address",
          "name": "approved",
          "type": "address"
        },
        {
          "indexed": true,
          "internalType": "uint256",
          "name": "tokenId",
          "type": "uint256"
        }
      ],
      "name": "Approval",
      "type": "event"
    },
    {
      "anonymous": false,
      "inputs": [
        {
          "indexed": true,
          "internalType": "address",
          "name": "owner",
          "type": "address"
        },
        {
          "indexed": true,
          "internalType": "address",
          "name": "operator",
          "type": "address"
        },
        {
          "indexed": false,
          "internalType": "bool",
          "name": "approved",
          "type": "bool"
        }
      ],
      "name": "ApprovalForAll",
      "type": "event"
    },
    {
      "anonymous": false,
      "inputs": [
        {
          "indexed": false,
          "internalType": "uint8",
          "name": "version",
          "type": "uint8"
        }
      ],
      "name": "Initialized",
      "type": "event"
    },
    {
      "anonymous": false,
      "inputs": [
        {
          "indexed": true,
          "internalType": "string",
          "name": "_collectionName",
          "type": "string"
        },
        {
          "indexed": true,
          "internalType": "string",
          "name": "_collectionSymbol",
          "type": "string"
        },
        {
          "indexed": true,
          "internalType": "address",
          "name": "_projectOwner",
          "type": "address"
        },
        {
          "indexed": false,
          "internalType": "address",
          "name": "_royaltyReceiver",
          "type": "address"
        },
        {
          "indexed": false,
          "internalType": "uint96",
          "name": "_feePercent",
          "type": "uint96"
        }
      ],
      "name": "InitializedMintpeg",
      "type": "event"
    },
    {
      "anonymous": false,
      "inputs": [
        {
          "indexed": true,
          "internalType": "address",
          "name": "previousOwner",
          "type": "address"
        },
        {
          "indexed": true,
          "internalType": "address",
          "name": "newOwner",
          "type": "address"
        }
      ],
      "name": "OwnershipTransferred",
      "type": "event"
    },
    {
      "anonymous": false,
      "inputs": [
        {
          "indexed": true,
          "internalType": "address",
          "name": "royaltyReceiver",
          "type": "address"
        },
        {
          "indexed": false,
          "internalType": "uint96",
          "name": "feePercent",
          "type": "uint96"
        }
      ],
      "name": "RoyaltyInfoChanged",
      "type": "event"
    },
    {
      "anonymous": false,
      "inputs": [
        {
          "indexed": false,
          "internalType": "uint256",
          "name": "tokenId",
          "type": "uint256"
        },
        {
          "indexed": true,
          "internalType": "address",
          "name": "royaltyReceiver",
          "type": "address"
        },
        {
          "indexed": false,
          "internalType": "uint96",
          "name": "feePercent",
          "type": "uint96"
        }
      ],
      "name": "TokenRoyaltyInfoChanged",
      "type": "event"
    },
    {
      "anonymous": false,
      "inputs": [
        {
          "indexed": true,
          "internalType": "address",
          "name": "from",
          "type": "address"
        },
        {
          "indexed": true,
          "internalType": "address",
          "name": "to",
          "type": "address"
        },
        {
          "indexed": true,
          "internalType": "uint256",
          "name": "tokenId",
          "type": "uint256"
        }
      ],
      "name": "Transfer",
      "type": "event"
    },
    {
      "inputs": [
        {
          "internalType": "address",
          "name": "to",
          "type": "address"
        },
        {
          "internalType": "uint256",
          "name": "tokenId",
          "type": "uint256"
        }
      ],
      "name": "approve",
      "outputs": [],
      "stateMutability": "nonpayable",
      "type": "function"
    },
    {
      "inputs": [
        {
          "internalType": "address",
          "name": "owner",
          "type": "address"
        }
      ],
      "name": "balanceOf",
      "outputs": [
        {
          "internalType": "uint256",
          "name": "",
          "type": "uint256"
        }
      ],
      "stateMutability": "view",
      "type": "function"
    },
    {
      "inputs": [
        {
          "internalType": "uint256",
          "name": "_tokenId",
          "type": "uint256"
        }
      ],
      "name": "burn",
      "outputs": [],
      "stateMutability": "nonpayable",
      "type": "function"
    },
    {
      "inputs": [
        {
          "internalType": "uint256",
          "name": "tokenId",
          "type": "uint256"
        }
      ],
      "name": "getApproved",
      "outputs": [
        {
          "internalType": "address",
          "name": "",
          "type": "address"
        }
      ],
      "stateMutability": "view",
      "type": "function"
    },
    {
      "inputs": [
        {
          "internalType": "string",
          "name": "_collectionName",
          "type": "string"
        },
        {
          "internalType": "string",
          "name": "_collectionSymbol",
          "type": "string"
        },
        {
          "internalType": "address",
          "name": "_royaltyReceiver",
          "type": "address"
        },
        {
          "internalType": "uint96",
          "name": "_feePercent",
          "type": "uint96"
        }
      ],
      "name": "initialize",
      "outputs": [],
      "stateMutability": "nonpayable",
      "type": "function"
    },
    {
      "inputs": [
        {
          "internalType": "address",
          "name": "owner",
          "type": "address"
        },
        {
          "internalType": "address",
          "name": "operator",
          "type": "address"
        }
      ],
      "name": "isApprovedForAll",
      "outputs": [
        {
          "internalType": "bool",
          "name": "",
          "type": "bool"
        }
      ],
      "stateMutability": "view",
      "type": "function"
    },
    {
      "inputs": [
        {
          "internalType": "string[]",
          "name": "_tokenURIs",
          "type": "string[]"
        }
      ],
      "name": "mint",
      "outputs": [],
      "stateMutability": "nonpayable",
      "type": "function"
    },
    {
      "inputs": [],
      "name": "name",
      "outputs": [
        {
          "internalType": "string",
          "name": "",
          "type": "string"
        }
      ],
      "stateMutability": "view",
      "type": "function"
    },
    {
      "inputs": [],
      "name": "owner",
      "outputs": [
        {
          "internalType": "address",
          "name": "",
          "type": "address"
        }
      ],
      "stateMutability": "view",
      "type": "function"
    },
    {
      "inputs": [
        {
          "internalType": "uint256",
          "name": "tokenId",
          "type": "uint256"
        }
      ],
      "name": "ownerOf",
      "outputs": [
        {
          "internalType": "address",
          "name": "",
          "type": "address"
        }
      ],
      "stateMutability": "view",
      "type": "function"
    },
    {
      "inputs": [],
      "name": "renounceOwnership",
      "outputs": [],
      "stateMutability": "nonpayable",
      "type": "function"
    },
    {
      "inputs": [
        {
          "internalType": "uint256",
          "name": "_tokenId",
          "type": "uint256"
        },
        {
          "internalType": "uint256",
          "name": "_salePrice",
          "type": "uint256"
        }
      ],
      "name": "royaltyInfo",
      "outputs": [
        {
          "internalType": "address",
          "name": "",
          "type": "address"
        },
        {
          "internalType": "uint256",
          "name": "",
          "type": "uint256"
        }
      ],
      "stateMutability": "view",
      "type": "function"
    },
    {
      "inputs": [
        {
          "internalType": "address",
          "name": "from",
          "type": "address"
        },
        {
          "internalType": "address",
          "name": "to",
          "type": "address"
        },
        {
          "internalType": "uint256",
          "name": "tokenId",
          "type": "uint256"
        }
      ],
      "name": "safeTransferFrom",
      "outputs": [],
      "stateMutability": "nonpayable",
      "type": "function"
    },
    {
      "inputs": [
        {
          "internalType": "address",
          "name": "from",
          "type": "address"
        },
        {
          "internalType": "address",
          "name": "to",
          "type": "address"
        },
        {
          "internalType": "uint256",
          "name": "tokenId",
          "type": "uint256"
        },
        {
          "internalType": "bytes",
          "name": "data",
          "type": "bytes"
        }
      ],
      "name": "safeTransferFrom",
      "outputs": [],
      "stateMutability": "nonpayable",
      "type": "function"
    },
    {
      "inputs": [
        {
          "internalType": "address",
          "name": "operator",
          "type": "address"
        },
        {
          "internalType": "bool",
          "name": "approved",
          "type": "bool"
        }
      ],
      "name": "setApprovalForAll",
      "outputs": [],
      "stateMutability": "nonpayable",
      "type": "function"
    },
    {
      "inputs": [
        {
          "internalType": "address",
          "name": "_royaltyReceiver",
          "type": "address"
        },
        {
          "internalType": "uint96",
          "name": "_feePercent",
          "type": "uint96"
        }
      ],
      "name": "setRoyaltyInfo",
      "outputs": [],
      "stateMutability": "nonpayable",
      "type": "function"
    },
    {
      "inputs": [
        {
          "internalType": "uint256",
          "name": "_tokenId",
          "type": "uint256"
        },
        {
          "internalType": "address",
          "name": "_royaltyReceiver",
          "type": "address"
        },
        {
          "internalType": "uint96",
          "name": "_feePercent",
          "type": "uint96"
        }
      ],
      "name": "setTokenRoyaltyInfo",
      "outputs": [],
      "stateMutability": "nonpayable",
      "type": "function"
    },
    {
      "inputs": [
        {
          "internalType": "bytes4",
          "name": "_interfaceId",
          "type": "bytes4"
        }
      ],
      "name": "supportsInterface",
      "outputs": [
        {
          "internalType": "bool",
          "name": "",
          "type": "bool"
        }
      ],
      "stateMutability": "view",
      "type": "function"
    },
    {
      "inputs": [],
      "name": "symbol",
      "outputs": [
        {
          "internalType": "string",
          "name": "",
          "type": "string"
        }
      ],
      "stateMutability": "view",
      "type": "function"
    },
    {
      "inputs": [
        {
          "internalType": "uint256",
          "name": "tokenId",
          "type": "uint256"
        }
      ],
      "name": "tokenURI",
      "outputs": [
        {
          "internalType": "string",
          "name": "",
          "type": "string"
        }
      ],
      "stateMutability": "view",
      "type": "function"
    },
    {
      "inputs": [
        {
          "internalType": "address",
          "name": "from",
          "type": "address"
        },
        {
          "internalType": "address",
          "name": "to",
          "type": "address"
        },
        {
          "internalType": "uint256",
          "name": "tokenId",
          "type": "uint256"
        }
      ],
      "name": "transferFrom",
      "outputs": [],
      "stateMutability": "nonpayable",
      "type": "function"
    },
    {
      "inputs": [
        {
          "internalType": "address",
          "name": "newOwner",
          "type": "address"
        }
      ],
      "name": "transferOwnership",
      "outputs": [],
      "stateMutability": "nonpayable",
      "type": "function"
    }
  ],
  "transactionHash": "0xe352c572b61fec583f12f55460904ba8c54daa09b8eea2ecc6c22480aceaa513",
  "args": [],
  "numDeployments": 2,
  "solcInputHash": "fc6f03e291449b1363623ae5cb817284",
  "bytecode": "0x608060405234801561001057600080fd5b50614124806100206000396000f3fe608060405234801561001057600080fd5b50600436106101425760003560e01c806370a08231116100b8578063b7e31add1161007c578063b7e31add14610360578063b88d4fde1461037c578063b8f7300314610398578063c87b56dd146103b4578063e985e9c5146103e4578063f2fde38b1461041457610142565b806370a08231146102ce578063715018a6146102fe5780638da5cb5b1461030857806395d89b4114610326578063a22cb4651461034457610142565b806323b872dd1161010a57806323b872dd146101fd5780632a55205a1461021957806342842e0e1461024a57806342966c68146102665780635768f271146102825780636352211e1461029e57610142565b806301ffc9a71461014757806302fa7c471461017757806306fdde0314610193578063081812fc146101b1578063095ea7b3146101e1575b600080fd5b610161600480360381019061015c9190612d73565b610430565b60405161016e91906133a7565b60405180910390f35b610191600480360381019061018c9190612cea565b610462565b005b61019b610510565b6040516101a891906133dd565b60405180910390f35b6101cb60048036038101906101c69190612e6c565b6105a2565b6040516101d891906132ee565b60405180910390f35b6101fb60048036038101906101f69190612caa565b6105e8565b005b61021760048036038101906102129190612b94565b610700565b005b610233600480360381019061022e9190612eec565b610760565b604051610241929190613355565b60405180910390f35b610264600480360381019061025f9190612b94565b61094b565b005b610280600480360381019061027b9190612e6c565b61096b565b005b61029c60048036038101906102979190612d2a565b6109ed565b005b6102b860048036038101906102b39190612e6c565b610a64565b6040516102c591906132ee565b60405180910390f35b6102e860048036038101906102e39190612b27565b610b16565b6040516102f5919061365f565b60405180910390f35b610306610bce565b005b610310610be2565b60405161031d91906132ee565b60405180910390f35b61032e610c0c565b60405161033b91906133dd565b60405180910390f35b61035e60048036038101906103599190612c6a565b610c9e565b005b61037a60048036038101906103759190612dcd565b610cb4565b005b61039660048036038101906103919190612be7565b610e8e565b005b6103b260048036038101906103ad9190612e99565b610ef0565b005b6103ce60048036038101906103c99190612e6c565b610fa2565b6040516103db91906133dd565b60405180910390f35b6103fe60048036038101906103f99190612b54565b6110b5565b60405161040b91906133a7565b60405180910390f35b61042e60048036038101906104299190612b27565b611149565b005b600061043b826111cd565b8061044b575061044a826112af565b5b8061045b575061045a826112af565b5b9050919050565b61046a611329565b6109c4816bffffffffffffffffffffffff1611156104b4576040517f67e4629a00000000000000000000000000000000000000000000000000000000815260040160405180910390fd5b6104be82826113a7565b8173ffffffffffffffffffffffffffffffffffffffff167f649787d44a877bdd8d255fbfdaba9927f56be0ec7aae8fb86cd16841966479d28260405161050491906136a3565b60405180910390a25050565b60606065805461051f906139b6565b80601f016020809104026020016040519081016040528092919081815260200182805461054b906139b6565b80156105985780601f1061056d57610100808354040283529160200191610598565b820191906000526020600020905b81548152906001019060200180831161057b57829003601f168201915b5050505050905090565b60006105ad8261153d565b6069600083815260200190815260200160002060009054906101000a900473ffffffffffffffffffffffffffffffffffffffff169050919050565b60006105f382610a64565b90508073ffffffffffffffffffffffffffffffffffffffff168373ffffffffffffffffffffffffffffffffffffffff161415610664576040517f08c379a000000000000000000000000000000000000000000000000000000000815260040161065b9061359f565b60405180910390fd5b8073ffffffffffffffffffffffffffffffffffffffff16610683611588565b73ffffffffffffffffffffffffffffffffffffffff1614806106b257506106b1816106ac611588565b6110b5565b5b6106f1576040517f08c379a00000000000000000000000000000000000000000000000000000000081526004016106e89061351f565b60405180910390fd5b6106fb8383611590565b505050565b61071161070b611588565b82611649565b610750576040517f08c379a00000000000000000000000000000000000000000000000000000000081526004016107479061361f565b60405180910390fd5b61075b8383836116de565b505050565b600080600060ca60008681526020019081526020016000206040518060400160405290816000820160009054906101000a900473ffffffffffffffffffffffffffffffffffffffff1673ffffffffffffffffffffffffffffffffffffffff1673ffffffffffffffffffffffffffffffffffffffff1681526020016000820160149054906101000a90046bffffffffffffffffffffffff166bffffffffffffffffffffffff166bffffffffffffffffffffffff16815250509050600073ffffffffffffffffffffffffffffffffffffffff16816000015173ffffffffffffffffffffffffffffffffffffffff1614156108f65760c96040518060400160405290816000820160009054906101000a900473ffffffffffffffffffffffffffffffffffffffff1673ffffffffffffffffffffffffffffffffffffffff1673ffffffffffffffffffffffffffffffffffffffff1681526020016000820160149054906101000a90046bffffffffffffffffffffffff166bffffffffffffffffffffffff166bffffffffffffffffffffffff168152505090505b6000610900611945565b6bffffffffffffffffffffffff1682602001516bffffffffffffffffffffffff168661092c919061383b565b610936919061380a565b90508160000151819350935050509250929050565b61096683838360405180602001604052806000815250610e8e565b505050565b3373ffffffffffffffffffffffffffffffffffffffff1661098b82610a64565b73ffffffffffffffffffffffffffffffffffffffff16146109d8576040517feeaa790500000000000000000000000000000000000000000000000000000000815260040160405180910390fd5b6109e18161194f565b6109ea816119a2565b50565b6109f5611329565b600080600090505b8251811015610a5f57610a1161012d611a01565b9150610a1e61012d611a0f565b610a283383611a25565b610a4c82848381518110610a3f57610a3e613b20565b5b6020026020010151611bff565b8080610a5790613a19565b9150506109fd565b505050565b6000806067600084815260200190815260200160002060009054906101000a900473ffffffffffffffffffffffffffffffffffffffff169050600073ffffffffffffffffffffffffffffffffffffffff168173ffffffffffffffffffffffffffffffffffffffff161415610b0d576040517f08c379a0000000000000000000000000000000000000000000000000000000008152600401610b049061357f565b60405180910390fd5b80915050919050565b60008073ffffffffffffffffffffffffffffffffffffffff168273ffffffffffffffffffffffffffffffffffffffff161415610b87576040517f08c379a0000000000000000000000000000000000000000000000000000000008152600401610b7e906134bf565b60405180910390fd5b606860008373ffffffffffffffffffffffffffffffffffffffff1673ffffffffffffffffffffffffffffffffffffffff168152602001908152602001600020549050919050565b610bd6611329565b610be06000611c73565b565b600060fb60009054906101000a900473ffffffffffffffffffffffffffffffffffffffff16905090565b606060668054610c1b906139b6565b80601f0160208091040260200160405190810160405280929190818152602001828054610c47906139b6565b8015610c945780601f10610c6957610100808354040283529160200191610c94565b820191906000526020600020905b815481529060010190602001808311610c7757829003601f168201915b5050505050905090565b610cb0610ca9611588565b8383611d39565b5050565b60008060019054906101000a900460ff16159050808015610ce55750600160008054906101000a900460ff1660ff16105b80610d125750610cf430611ea6565b158015610d115750600160008054906101000a900460ff1660ff16145b5b610d51576040517f08c379a0000000000000000000000000000000000000000000000000000000008152600401610d48906134ff565b60405180910390fd5b60016000806101000a81548160ff021916908360ff1602179055508015610d8e576001600060016101000a81548160ff0219169083151502179055505b610d96611ec9565b610d9e611f22565b610da88585611f73565b610db28383610462565b3373ffffffffffffffffffffffffffffffffffffffff1684604051610dd791906132b3565b604051809103902086604051610ded91906132b3565b60405180910390207fb1b873058c2281a857e99160de508f1e36f6fbbeca6de3a45bf8316ff91ead788686604051610e2692919061337e565b60405180910390a48015610e875760008060016101000a81548160ff0219169083151502179055507f7f26b83ff96e1f2b6a682f133852f6798a09c465da95921460cefb38474024986001604051610e7e91906133c2565b60405180910390a15b5050505050565b610e9f610e99611588565b83611649565b610ede576040517f08c379a0000000000000000000000000000000000000000000000000000000008152600401610ed59061361f565b60405180910390fd5b610eea84848484611fd0565b50505050565b610ef8611329565b6109c4816bffffffffffffffffffffffff161115610f42576040517f67e4629a00000000000000000000000000000000000000000000000000000000815260040160405180910390fd5b610f4d83838361202c565b8173ffffffffffffffffffffffffffffffffffffffff167f6b487ddd0efdbfd7606e8030e43550f55602ad00f641f939c333b8731daca8a28483604051610f9592919061367a565b60405180910390a2505050565b6060610fad8261153d565b6000609760008481526020019081526020016000208054610fcd906139b6565b80601f0160208091040260200160405190810160405280929190818152602001828054610ff9906139b6565b80156110465780601f1061101b57610100808354040283529160200191611046565b820191906000526020600020905b81548152906001019060200180831161102957829003601f168201915b5050505050905060006110576121d4565b905060008151141561106d5781925050506110b0565b6000825111156110a257808260405160200161108a9291906132ca565b604051602081830303815290604052925050506110b0565b6110ab846121eb565b925050505b919050565b6000606a60008473ffffffffffffffffffffffffffffffffffffffff1673ffffffffffffffffffffffffffffffffffffffff16815260200190815260200160002060008373ffffffffffffffffffffffffffffffffffffffff1673ffffffffffffffffffffffffffffffffffffffff16815260200190815260200160002060009054906101000a900460ff16905092915050565b611151611329565b600073ffffffffffffffffffffffffffffffffffffffff168173ffffffffffffffffffffffffffffffffffffffff1614156111c1576040517f08c379a00000000000000000000000000000000000000000000000000000000081526004016111b89061341f565b60405180910390fd5b6111ca81611c73565b50565b60007f80ac58cd000000000000000000000000000000000000000000000000000000007bffffffffffffffffffffffffffffffffffffffffffffffffffffffff1916827bffffffffffffffffffffffffffffffffffffffffffffffffffffffff1916148061129857507f5b5e139f000000000000000000000000000000000000000000000000000000007bffffffffffffffffffffffffffffffffffffffffffffffffffffffff1916827bffffffffffffffffffffffffffffffffffffffffffffffffffffffff1916145b806112a857506112a782612253565b5b9050919050565b60007f2a55205a000000000000000000000000000000000000000000000000000000007bffffffffffffffffffffffffffffffffffffffffffffffffffffffff1916827bffffffffffffffffffffffffffffffffffffffffffffffffffffffff191614806113225750611321826111cd565b5b9050919050565b611331611588565b73ffffffffffffffffffffffffffffffffffffffff1661134f610be2565b73ffffffffffffffffffffffffffffffffffffffff16146113a5576040517f08c379a000000000000000000000000000000000000000000000000000000000815260040161139c9061355f565b60405180910390fd5b565b6113af611945565b6bffffffffffffffffffffffff16816bffffffffffffffffffffffff16111561140d576040517f08c379a0000000000000000000000000000000000000000000000000000000008152600401611404906135ff565b60405180910390fd5b600073ffffffffffffffffffffffffffffffffffffffff168273ffffffffffffffffffffffffffffffffffffffff16141561147d576040517f08c379a00000000000000000000000000000000000000000000000000000000081526004016114749061363f565b60405180910390fd5b60405180604001604052808373ffffffffffffffffffffffffffffffffffffffff168152602001826bffffffffffffffffffffffff1681525060c960008201518160000160006101000a81548173ffffffffffffffffffffffffffffffffffffffff021916908373ffffffffffffffffffffffffffffffffffffffff16021790555060208201518160000160146101000a8154816bffffffffffffffffffffffff02191690836bffffffffffffffffffffffff1602179055509050505050565b611546816122bd565b611585576040517f08c379a000000000000000000000000000000000000000000000000000000000815260040161157c9061357f565b60405180910390fd5b50565b600033905090565b816069600083815260200190815260200160002060006101000a81548173ffffffffffffffffffffffffffffffffffffffff021916908373ffffffffffffffffffffffffffffffffffffffff160217905550808273ffffffffffffffffffffffffffffffffffffffff1661160383610a64565b73ffffffffffffffffffffffffffffffffffffffff167f8c5be1e5ebec7d5bd14f71427d1e84f3dd0314c0f7b2291e5b200ac8c7c3b92560405160405180910390a45050565b60008061165583610a64565b90508073ffffffffffffffffffffffffffffffffffffffff168473ffffffffffffffffffffffffffffffffffffffff161480611697575061169681856110b5565b5b806116d557508373ffffffffffffffffffffffffffffffffffffffff166116bd846105a2565b73ffffffffffffffffffffffffffffffffffffffff16145b91505092915050565b8273ffffffffffffffffffffffffffffffffffffffff166116fe82610a64565b73ffffffffffffffffffffffffffffffffffffffff1614611754576040517f08c379a000000000000000000000000000000000000000000000000000000000815260040161174b9061343f565b60405180910390fd5b600073ffffffffffffffffffffffffffffffffffffffff168273ffffffffffffffffffffffffffffffffffffffff1614156117c4576040517f08c379a00000000000000000000000000000000000000000000000000000000081526004016117bb9061347f565b60405180910390fd5b6117cf838383612329565b6117da600082611590565b6001606860008573ffffffffffffffffffffffffffffffffffffffff1673ffffffffffffffffffffffffffffffffffffffff168152602001908152602001600020600082825461182a9190613895565b925050819055506001606860008473ffffffffffffffffffffffffffffffffffffffff1673ffffffffffffffffffffffffffffffffffffffff168152602001908152602001600020600082825461188191906137b4565b92505081905550816067600083815260200190815260200160002060006101000a81548173ffffffffffffffffffffffffffffffffffffffff021916908373ffffffffffffffffffffffffffffffffffffffff160217905550808273ffffffffffffffffffffffffffffffffffffffff168473ffffffffffffffffffffffffffffffffffffffff167fddf252ad1be2c89b69c2b068fc378daa952ba7f163c4a11628f55a4df523b3ef60405160405180910390a461194083838361232e565b505050565b6000612710905090565b61195881612333565b6000609760008381526020019081526020016000208054611978906139b6565b90501461199f5760976000828152602001908152602001600020600061199e919061282a565b5b50565b60ca6000828152602001908152602001600020600080820160006101000a81549073ffffffffffffffffffffffffffffffffffffffff02191690556000820160146101000a8154906bffffffffffffffffffffffff0219169055505050565b600081600001549050919050565b6001816000016000828254019250508190555050565b600073ffffffffffffffffffffffffffffffffffffffff168273ffffffffffffffffffffffffffffffffffffffff161415611a95576040517f08c379a0000000000000000000000000000000000000000000000000000000008152600401611a8c9061353f565b60405180910390fd5b611a9e816122bd565b15611ade576040517f08c379a0000000000000000000000000000000000000000000000000000000008152600401611ad59061345f565b60405180910390fd5b611aea60008383612329565b6001606860008473ffffffffffffffffffffffffffffffffffffffff1673ffffffffffffffffffffffffffffffffffffffff1681526020019081526020016000206000828254611b3a91906137b4565b92505081905550816067600083815260200190815260200160002060006101000a81548173ffffffffffffffffffffffffffffffffffffffff021916908373ffffffffffffffffffffffffffffffffffffffff160217905550808273ffffffffffffffffffffffffffffffffffffffff16600073ffffffffffffffffffffffffffffffffffffffff167fddf252ad1be2c89b69c2b068fc378daa952ba7f163c4a11628f55a4df523b3ef60405160405180910390a4611bfb6000838361232e565b5050565b611c08826122bd565b611c47576040517f08c379a0000000000000000000000000000000000000000000000000000000008152600401611c3e906134df565b60405180910390fd5b80609760008481526020019081526020016000209080519060200190611c6e92919061286a565b505050565b600060fb60009054906101000a900473ffffffffffffffffffffffffffffffffffffffff1690508160fb60006101000a81548173ffffffffffffffffffffffffffffffffffffffff021916908373ffffffffffffffffffffffffffffffffffffffff1602179055508173ffffffffffffffffffffffffffffffffffffffff168173ffffffffffffffffffffffffffffffffffffffff167f8be0079c531659141344cd1fd0a4f28419497f9722a3daafe3b4186f6b6457e060405160405180910390a35050565b8173ffffffffffffffffffffffffffffffffffffffff168373ffffffffffffffffffffffffffffffffffffffff161415611da8576040517f08c379a0000000000000000000000000000000000000000000000000000000008152600401611d9f9061349f565b60405180910390fd5b80606a60008573ffffffffffffffffffffffffffffffffffffffff1673ffffffffffffffffffffffffffffffffffffffff16815260200190815260200160002060008473ffffffffffffffffffffffffffffffffffffffff1673ffffffffffffffffffffffffffffffffffffffff16815260200190815260200160002060006101000a81548160ff0219169083151502179055508173ffffffffffffffffffffffffffffffffffffffff168373ffffffffffffffffffffffffffffffffffffffff167f17307eab39ab6107e8899845ad3d59bd9653f200f220920489ca2b5937696c3183604051611e9991906133a7565b60405180910390a3505050565b6000808273ffffffffffffffffffffffffffffffffffffffff163b119050919050565b600060019054906101000a900460ff16611f18576040517f08c379a0000000000000000000000000000000000000000000000000000000008152600401611f0f906135df565b60405180910390fd5b611f20612450565b565b600060019054906101000a900460ff16611f71576040517f08c379a0000000000000000000000000000000000000000000000000000000008152600401611f68906135df565b60405180910390fd5b565b600060019054906101000a900460ff16611fc2576040517f08c379a0000000000000000000000000000000000000000000000000000000008152600401611fb9906135df565b60405180910390fd5b611fcc82826124b1565b5050565b611fdb8484846116de565b611fe784848484612532565b612026576040517f08c379a000000000000000000000000000000000000000000000000000000000815260040161201d906133ff565b60405180910390fd5b50505050565b612034611945565b6bffffffffffffffffffffffff16816bffffffffffffffffffffffff161115612092576040517f08c379a0000000000000000000000000000000000000000000000000000000008152600401612089906135ff565b60405180910390fd5b600073ffffffffffffffffffffffffffffffffffffffff168273ffffffffffffffffffffffffffffffffffffffff161415612102576040517f08c379a00000000000000000000000000000000000000000000000000000000081526004016120f9906135bf565b60405180910390fd5b60405180604001604052808373ffffffffffffffffffffffffffffffffffffffff168152602001826bffffffffffffffffffffffff1681525060ca600085815260200190815260200160002060008201518160000160006101000a81548173ffffffffffffffffffffffffffffffffffffffff021916908373ffffffffffffffffffffffffffffffffffffffff16021790555060208201518160000160146101000a8154816bffffffffffffffffffffffff02191690836bffffffffffffffffffffffff160217905550905050505050565b606060405180602001604052806000815250905090565b60606121f68261153d565b60006122006121d4565b90506000815111612220576040518060200160405280600081525061224b565b8061222a846126c9565b60405160200161223b9291906132ca565b6040516020818303038152906040525b915050919050565b60007f01ffc9a7000000000000000000000000000000000000000000000000000000007bffffffffffffffffffffffffffffffffffffffffffffffffffffffff1916827bffffffffffffffffffffffffffffffffffffffffffffffffffffffff1916149050919050565b60008073ffffffffffffffffffffffffffffffffffffffff166067600084815260200190815260200160002060009054906101000a900473ffffffffffffffffffffffffffffffffffffffff1673ffffffffffffffffffffffffffffffffffffffff1614159050919050565b505050565b505050565b600061233e82610a64565b905061234c81600084612329565b612357600083611590565b6001606860008373ffffffffffffffffffffffffffffffffffffffff1673ffffffffffffffffffffffffffffffffffffffff16815260200190815260200160002060008282546123a79190613895565b925050819055506067600083815260200190815260200160002060006101000a81549073ffffffffffffffffffffffffffffffffffffffff021916905581600073ffffffffffffffffffffffffffffffffffffffff168273ffffffffffffffffffffffffffffffffffffffff167fddf252ad1be2c89b69c2b068fc378daa952ba7f163c4a11628f55a4df523b3ef60405160405180910390a461244c8160008461232e565b5050565b600060019054906101000a900460ff1661249f576040517f08c379a0000000000000000000000000000000000000000000000000000000008152600401612496906135df565b60405180910390fd5b6124af6124aa611588565b611c73565b565b600060019054906101000a900460ff16612500576040517f08c379a00000000000000000000000000000000000000000000000000000000081526004016124f7906135df565b60405180910390fd5b816065908051906020019061251692919061286a565b50806066908051906020019061252d92919061286a565b505050565b60006125538473ffffffffffffffffffffffffffffffffffffffff16611ea6565b156126bc578373ffffffffffffffffffffffffffffffffffffffff1663150b7a0261257c611588565b8786866040518563ffffffff1660e01b815260040161259e9493929190613309565b602060405180830381600087803b1580156125b857600080fd5b505af19250505080156125e957506040513d601f19601f820116820180604052508101906125e69190612da0565b60015b61266c573d8060008114612619576040519150601f19603f3d011682016040523d82523d6000602084013e61261e565b606091505b50600081511415612664576040517f08c379a000000000000000000000000000000000000000000000000000000000815260040161265b906133ff565b60405180910390fd5b805181602001fd5b63150b7a0260e01b7bffffffffffffffffffffffffffffffffffffffffffffffffffffffff1916817bffffffffffffffffffffffffffffffffffffffffffffffffffffffff1916149150506126c1565b600190505b949350505050565b60606000821415612711576040518060400160405280600181526020017f30000000000000000000000000000000000000000000000000000000000000008152509050612825565b600082905060005b6000821461274357808061272c90613a19565b915050600a8261273c919061380a565b9150612719565b60008167ffffffffffffffff81111561275f5761275e613b4f565b5b6040519080825280601f01601f1916602001820160405280156127915781602001600182028036833780820191505090505b5090505b6000851461281e576001826127aa9190613895565b9150600a856127b99190613a62565b60306127c591906137b4565b60f81b8183815181106127db576127da613b20565b5b60200101907effffffffffffffffffffffffffffffffffffffffffffffffffffffffffffff1916908160001a905350600a85612817919061380a565b9450612795565b8093505050505b919050565b508054612836906139b6565b6000825580601f106128485750612867565b601f01602090049060005260206000209081019061286691906128f0565b5b50565b828054612876906139b6565b90600052602060002090601f01602090048101928261289857600085556128df565b82601f106128b157805160ff19168380011785556128df565b828001600101855582156128df579182015b828111156128de5782518255916020019190600101906128c3565b5b5090506128ec91906128f0565b5090565b5b808211156129095760008160009055506001016128f1565b5090565b600061292061291b846136e3565b6136be565b9050808382526020820190508285602086028201111561294357612942613b83565b5b60005b8581101561299157813567ffffffffffffffff81111561296957612968613b7e565b5b8086016129768982612acf565b85526020850194506020840193505050600181019050612946565b5050509392505050565b60006129ae6129a98461370f565b6136be565b9050828152602081018484840111156129ca576129c9613b88565b5b6129d5848285613974565b509392505050565b60006129f06129eb84613740565b6136be565b905082815260208101848484011115612a0c57612a0b613b88565b5b612a17848285613974565b509392505050565b600081359050612a2e8161407b565b92915050565b600082601f830112612a4957612a48613b7e565b5b8135612a5984826020860161290d565b91505092915050565b600081359050612a7181614092565b92915050565b600081359050612a86816140a9565b92915050565b600081519050612a9b816140a9565b92915050565b600082601f830112612ab657612ab5613b7e565b5b8135612ac684826020860161299b565b91505092915050565b600082601f830112612ae457612ae3613b7e565b5b8135612af48482602086016129dd565b91505092915050565b600081359050612b0c816140c0565b92915050565b600081359050612b21816140d7565b92915050565b600060208284031215612b3d57612b3c613b92565b5b6000612b4b84828501612a1f565b91505092915050565b60008060408385031215612b6b57612b6a613b92565b5b6000612b7985828601612a1f565b9250506020612b8a85828601612a1f565b9150509250929050565b600080600060608486031215612bad57612bac613b92565b5b6000612bbb86828701612a1f565b9350506020612bcc86828701612a1f565b9250506040612bdd86828701612afd565b9150509250925092565b60008060008060808587031215612c0157612c00613b92565b5b6000612c0f87828801612a1f565b9450506020612c2087828801612a1f565b9350506040612c3187828801612afd565b925050606085013567ffffffffffffffff811115612c5257612c51613b8d565b5b612c5e87828801612aa1565b91505092959194509250565b60008060408385031215612c8157612c80613b92565b5b6000612c8f85828601612a1f565b9250506020612ca085828601612a62565b9150509250929050565b60008060408385031215612cc157612cc0613b92565b5b6000612ccf85828601612a1f565b9250506020612ce085828601612afd565b9150509250929050565b60008060408385031215612d0157612d00613b92565b5b6000612d0f85828601612a1f565b9250506020612d2085828601612b12565b9150509250929050565b600060208284031215612d4057612d3f613b92565b5b600082013567ffffffffffffffff811115612d5e57612d5d613b8d565b5b612d6a84828501612a34565b91505092915050565b600060208284031215612d8957612d88613b92565b5b6000612d9784828501612a77565b91505092915050565b600060208284031215612db657612db5613b92565b5b6000612dc484828501612a8c565b91505092915050565b60008060008060808587031215612de757612de6613b92565b5b600085013567ffffffffffffffff811115612e0557612e04613b8d565b5b612e1187828801612acf565b945050602085013567ffffffffffffffff811115612e3257612e31613b8d565b5b612e3e87828801612acf565b9350506040612e4f87828801612a1f565b9250506060612e6087828801612b12565b91505092959194509250565b600060208284031215612e8257612e81613b92565b5b6000612e9084828501612afd565b91505092915050565b600080600060608486031215612eb257612eb1613b92565b5b6000612ec086828701612afd565b9350506020612ed186828701612a1f565b9250506040612ee286828701612b12565b9150509250925092565b60008060408385031215612f0357612f02613b92565b5b6000612f1185828601612afd565b9250506020612f2285828601612afd565b9150509250929050565b612f35816138c9565b82525050565b612f44816138db565b82525050565b6000612f5582613771565b612f5f8185613787565b9350612f6f818560208601613983565b612f7881613b97565b840191505092915050565b612f8c81613962565b82525050565b6000612f9d8261377c565b612fa78185613798565b9350612fb7818560208601613983565b612fc081613b97565b840191505092915050565b6000612fd68261377c565b612fe081856137a9565b9350612ff0818560208601613983565b80840191505092915050565b6000613009603283613798565b915061301482613ba8565b604082019050919050565b600061302c602683613798565b915061303782613bf7565b604082019050919050565b600061304f602583613798565b915061305a82613c46565b604082019050919050565b6000613072601c83613798565b915061307d82613c95565b602082019050919050565b6000613095602483613798565b91506130a082613cbe565b604082019050919050565b60006130b8601983613798565b91506130c382613d0d565b602082019050919050565b60006130db602983613798565b91506130e682613d36565b604082019050919050565b60006130fe602e83613798565b915061310982613d85565b604082019050919050565b6000613121602e83613798565b915061312c82613dd4565b604082019050919050565b6000613144603e83613798565b915061314f82613e23565b604082019050919050565b6000613167602083613798565b915061317282613e72565b602082019050919050565b600061318a602083613798565b915061319582613e9b565b602082019050919050565b60006131ad601883613798565b91506131b882613ec4565b602082019050919050565b60006131d0602183613798565b91506131db82613eed565b604082019050919050565b60006131f3601b83613798565b91506131fe82613f3c565b602082019050919050565b6000613216602b83613798565b915061322182613f65565b604082019050919050565b6000613239602a83613798565b915061324482613fb4565b604082019050919050565b600061325c602e83613798565b915061326782614003565b604082019050919050565b600061327f601983613798565b915061328a82614052565b602082019050919050565b61329e81613933565b82525050565b6132ad8161394a565b82525050565b60006132bf8284612fcb565b915081905092915050565b60006132d68285612fcb565b91506132e28284612fcb565b91508190509392505050565b60006020820190506133036000830184612f2c565b92915050565b600060808201905061331e6000830187612f2c565b61332b6020830186612f2c565b6133386040830185613295565b818103606083015261334a8184612f4a565b905095945050505050565b600060408201905061336a6000830185612f2c565b6133776020830184613295565b9392505050565b60006040820190506133936000830185612f2c565b6133a060208301846132a4565b9392505050565b60006020820190506133bc6000830184612f3b565b92915050565b60006020820190506133d76000830184612f83565b92915050565b600060208201905081810360008301526133f78184612f92565b905092915050565b6000602082019050818103600083015261341881612ffc565b9050919050565b600060208201905081810360008301526134388161301f565b9050919050565b6000602082019050818103600083015261345881613042565b9050919050565b6000602082019050818103600083015261347881613065565b9050919050565b6000602082019050818103600083015261349881613088565b9050919050565b600060208201905081810360008301526134b8816130ab565b9050919050565b600060208201905081810360008301526134d8816130ce565b9050919050565b600060208201905081810360008301526134f8816130f1565b9050919050565b6000602082019050818103600083015261351881613114565b9050919050565b6000602082019050818103600083015261353881613137565b9050919050565b600060208201905081810360008301526135588161315a565b9050919050565b600060208201905081810360008301526135788161317d565b9050919050565b60006020820190508181036000830152613598816131a0565b9050919050565b600060208201905081810360008301526135b8816131c3565b9050919050565b600060208201905081810360008301526135d8816131e6565b9050919050565b600060208201905081810360008301526135f881613209565b9050919050565b600060208201905081810360008301526136188161322c565b9050919050565b600060208201905081810360008301526136388161324f565b9050919050565b6000602082019050818103600083015261365881613272565b9050919050565b60006020820190506136746000830184613295565b92915050565b600060408201905061368f6000830185613295565b61369c60208301846132a4565b9392505050565b60006020820190506136b860008301846132a4565b92915050565b60006136c86136d9565b90506136d482826139e8565b919050565b6000604051905090565b600067ffffffffffffffff8211156136fe576136fd613b4f565b5b602082029050602081019050919050565b600067ffffffffffffffff82111561372a57613729613b4f565b5b61373382613b97565b9050602081019050919050565b600067ffffffffffffffff82111561375b5761375a613b4f565b5b61376482613b97565b9050602081019050919050565b600081519050919050565b600081519050919050565b600082825260208201905092915050565b600082825260208201905092915050565b600081905092915050565b60006137bf82613933565b91506137ca83613933565b9250827fffffffffffffffffffffffffffffffffffffffffffffffffffffffffffffffff038211156137ff576137fe613a93565b5b828201905092915050565b600061381582613933565b915061382083613933565b9250826138305761382f613ac2565b5b828204905092915050565b600061384682613933565b915061385183613933565b9250817fffffffffffffffffffffffffffffffffffffffffffffffffffffffffffffffff048311821515161561388a57613889613a93565b5b828202905092915050565b60006138a082613933565b91506138ab83613933565b9250828210156138be576138bd613a93565b5b828203905092915050565b60006138d482613913565b9050919050565b60008115159050919050565b60007fffffffff0000000000000000000000000000000000000000000000000000000082169050919050565b600073ffffffffffffffffffffffffffffffffffffffff82169050919050565b6000819050919050565b600060ff82169050919050565b60006bffffffffffffffffffffffff82169050919050565b600061396d8261393d565b9050919050565b82818337600083830152505050565b60005b838110156139a1578082015181840152602081019050613986565b838111156139b0576000848401525b50505050565b600060028204905060018216806139ce57607f821691505b602082108114156139e2576139e1613af1565b5b50919050565b6139f182613b97565b810181811067ffffffffffffffff82111715613a1057613a0f613b4f565b5b80604052505050565b6000613a2482613933565b91507fffffffffffffffffffffffffffffffffffffffffffffffffffffffffffffffff821415613a5757613a56613a93565b5b600182019050919050565b6000613a6d82613933565b9150613a7883613933565b925082613a8857613a87613ac2565b5b828206905092915050565b7f4e487b7100000000000000000000000000000000000000000000000000000000600052601160045260246000fd5b7f4e487b7100000000000000000000000000000000000000000000000000000000600052601260045260246000fd5b7f4e487b7100000000000000000000000000000000000000000000000000000000600052602260045260246000fd5b7f4e487b7100000000000000000000000000000000000000000000000000000000600052603260045260246000fd5b7f4e487b7100000000000000000000000000000000000000000000000000000000600052604160045260246000fd5b600080fd5b600080fd5b600080fd5b600080fd5b600080fd5b6000601f19601f8301169050919050565b7f4552433732313a207472616e7366657220746f206e6f6e20455243373231526560008201527f63656976657220696d706c656d656e7465720000000000000000000000000000602082015250565b7f4f776e61626c653a206e6577206f776e657220697320746865207a65726f206160008201527f6464726573730000000000000000000000000000000000000000000000000000602082015250565b7f4552433732313a207472616e736665722066726f6d20696e636f72726563742060008201527f6f776e6572000000000000000000000000000000000000000000000000000000602082015250565b7f4552433732313a20746f6b656e20616c7265616479206d696e74656400000000600082015250565b7f4552433732313a207472616e7366657220746f20746865207a65726f2061646460008201527f7265737300000000000000000000000000000000000000000000000000000000602082015250565b7f4552433732313a20617070726f766520746f2063616c6c657200000000000000600082015250565b7f4552433732313a2061646472657373207a65726f206973206e6f74206120766160008201527f6c6964206f776e65720000000000000000000000000000000000000000000000602082015250565b7f45524337323155524953746f726167653a2055524920736574206f66206e6f6e60008201527f6578697374656e7420746f6b656e000000000000000000000000000000000000602082015250565b7f496e697469616c697a61626c653a20636f6e747261637420697320616c72656160008201527f647920696e697469616c697a6564000000000000000000000000000000000000602082015250565b7f4552433732313a20617070726f76652063616c6c6572206973206e6f7420746f60008201527f6b656e206f776e6572206e6f7220617070726f76656420666f7220616c6c0000602082015250565b7f4552433732313a206d696e7420746f20746865207a65726f2061646472657373600082015250565b7f4f776e61626c653a2063616c6c6572206973206e6f7420746865206f776e6572600082015250565b7f4552433732313a20696e76616c696420746f6b656e2049440000000000000000600082015250565b7f4552433732313a20617070726f76616c20746f2063757272656e74206f776e6560008201527f7200000000000000000000000000000000000000000000000000000000000000602082015250565b7f455243323938313a20496e76616c696420706172616d65746572730000000000600082015250565b7f496e697469616c697a61626c653a20636f6e7472616374206973206e6f74206960008201527f6e697469616c697a696e67000000000000000000000000000000000000000000602082015250565b7f455243323938313a20726f79616c7479206665652077696c6c2065786365656460008201527f2073616c65507269636500000000000000000000000000000000000000000000602082015250565b7f4552433732313a2063616c6c6572206973206e6f7420746f6b656e206f776e6560008201527f72206e6f7220617070726f766564000000000000000000000000000000000000602082015250565b7f455243323938313a20696e76616c696420726563656976657200000000000000600082015250565b614084816138c9565b811461408f57600080fd5b50565b61409b816138db565b81146140a657600080fd5b50565b6140b2816138e7565b81146140bd57600080fd5b50565b6140c981613933565b81146140d457600080fd5b50565b6140e08161394a565b81146140eb57600080fd5b5056fea2646970667358221220dba10aa066256bc96916ddcb8a46f6396e9b035a515ea334e5f2af1f6dd83a3164736f6c63430008070033",
  "devdoc": {
    "author": "Trader Joe",
    "events": {
      "InitializedMintpeg(string,string,address,address,uint96)": {
        "params": {
          "_collectionName": "ERC721 name",
          "_collectionSymbol": "ERC721 symbol",
          "_feePercent": "Royalty fee numerator; denominator is 10,000. So 500 represents 5%",
          "_projectOwner": "function caller",
          "_royaltyReceiver": "Royalty fee collector"
        }
      },
      "RoyaltyInfoChanged(address,uint96)": {
        "params": {
          "feePercent": "Royalty fee numerator; denominator is 10,000. So 500 represents 5%",
          "royaltyReceiver": "Royalty fee collector"
        }
      },
      "TokenRoyaltyInfoChanged(uint256,address,uint96)": {
        "params": {
          "feePercent": "Royalty fee numerator; denominator is 10,000. So 500 represents 5%",
          "royaltyReceiver": "Royalty fee collector",
          "tokenId": "Token ID royalty to be set"
        }
      }
    },
    "kind": "dev",
    "methods": {
      "approve(address,uint256)": {
        "details": "See {IERC721-approve}."
      },
      "balanceOf(address)": {
        "details": "See {IERC721-balanceOf}."
      },
      "burn(uint256)": {
        "details": "Can only be called by token owner",
        "params": {
          "_tokenId": "Token ID to be burnt"
        }
      },
      "getApproved(uint256)": {
        "details": "See {IERC721-getApproved}."
      },
      "initialize(string,string,address,uint96)": {
        "params": {
          "_collectionName": "ERC721 name",
          "_collectionSymbol": "ERC721 symbol",
          "_feePercent": "Royalty fee numerator; denominator is 10,000. So 500 represents 5%",
          "_royaltyReceiver": "Royalty fee collector"
        }
      },
      "isApprovedForAll(address,address)": {
        "details": "See {IERC721-isApprovedForAll}."
      },
      "mint(string[])": {
        "details": "Can only be called by project owner",
        "params": {
          "_tokenURIs": "Array of tokenURIs (probably IPFS) of the tokenIds to be minted"
        }
      },
      "name()": {
        "details": "See {IERC721Metadata-name}."
      },
      "owner()": {
        "details": "Returns the address of the current owner."
      },
      "ownerOf(uint256)": {
        "details": "See {IERC721-ownerOf}."
      },
      "renounceOwnership()": {
        "details": "Leaves the contract without owner. It will not be possible to call `onlyOwner` functions anymore. Can only be called by the current owner. NOTE: Renouncing ownership will leave the contract without an owner, thereby removing any functionality that is only available to the owner."
      },
      "royaltyInfo(uint256,uint256)": {
        "details": "Returns how much royalty is owed and to whom, based on a sale price that may be denominated in any unit of exchange. The royalty amount is denominated and should be paid in that same unit of exchange."
      },
      "safeTransferFrom(address,address,uint256)": {
        "details": "See {IERC721-safeTransferFrom}."
      },
      "safeTransferFrom(address,address,uint256,bytes)": {
        "details": "See {IERC721-safeTransferFrom}."
      },
      "setApprovalForAll(address,bool)": {
        "details": "See {IERC721-setApprovalForAll}."
      },
      "setRoyaltyInfo(address,uint96)": {
        "details": "Can only be called by project ownerowner can prevent any sale by setting the address to any address that can't receive AVAX.",
        "params": {
          "_feePercent": "Royalty fee numerator; denominator is 10,000. So 500 represents 5%",
          "_royaltyReceiver": "Royalty fee collector"
        }
      },
      "setTokenRoyaltyInfo(uint256,address,uint96)": {
        "details": "Can only be called by project ownerowner can prevent any sale by setting the address to any address that can't receive AVAX.",
        "params": {
          "_feePercent": "Royalty fee numerator; denominator is 10,000. So 500 represents 5%",
          "_royaltyReceiver": "Royalty fee collector",
          "_tokenId": "Token ID royalty to be set"
        }
      },
      "supportsInterface(bytes4)": {
        "details": "Needs to be overridden cause two base contracts implement it",
        "params": {
          "_interfaceId": "InterfaceId to consider. Comes from type(InterfaceContract).interfaceId"
        },
        "returns": {
          "_0": "bool True if the considered interface is supported"
        }
      },
      "symbol()": {
        "details": "See {IERC721Metadata-symbol}."
      },
      "tokenURI(uint256)": {
        "details": "See {IERC721Metadata-tokenURI}."
      },
      "transferFrom(address,address,uint256)": {
        "details": "See {IERC721-transferFrom}."
      },
      "transferOwnership(address)": {
        "details": "Transfers ownership of the contract to a new account (`newOwner`). Can only be called by the current owner."
      }
    },
    "title": "Mintpeg Contract",
    "version": 1
  },
  "userdoc": {
    "events": {
      "InitializedMintpeg(string,string,address,address,uint96)": {
        "notice": "Emmited on initialize()"
      },
      "RoyaltyInfoChanged(address,uint96)": {
        "notice": "Emmited on setRoyaltyInfo()"
      },
      "TokenRoyaltyInfoChanged(uint256,address,uint96)": {
        "notice": "Emmited on setTokenRoyaltyInfo()"
      }
    },
    "kind": "user",
    "methods": {
      "burn(uint256)": {
        "notice": "Function to burn a token"
      },
      "initialize(string,string,address,uint96)": {
        "notice": "Mintpeg initialization"
      },
      "mint(string[])": {
        "notice": "Function to mint new tokens"
      },
      "setRoyaltyInfo(address,uint96)": {
        "notice": "Function for changing royalty information"
      },
      "setTokenRoyaltyInfo(uint256,address,uint96)": {
        "notice": "Function for changing token royalty information"
      },
      "supportsInterface(bytes4)": {
        "notice": "Returns true if this contract implements the interface defined by `interfaceId`"
      }
    },
    "notice": "ERC721 contracts for artists to mint NFTs",
    "version": 1
  },
  "storageLayout": {
    "storage": [
      {
        "astId": 157,
        "contract": "contracts/Mintpeg.sol:Mintpeg",
        "label": "_initialized",
        "offset": 0,
        "slot": "0",
        "type": "t_uint8"
      },
      {
        "astId": 160,
        "contract": "contracts/Mintpeg.sol:Mintpeg",
        "label": "_initializing",
        "offset": 1,
        "slot": "0",
        "type": "t_bool"
      },
      {
        "astId": 2001,
        "contract": "contracts/Mintpeg.sol:Mintpeg",
        "label": "__gap",
        "offset": 0,
        "slot": "1",
        "type": "t_array(t_uint256)50_storage"
      },
      {
        "astId": 2271,
        "contract": "contracts/Mintpeg.sol:Mintpeg",
        "label": "__gap",
        "offset": 0,
        "slot": "51",
        "type": "t_array(t_uint256)50_storage"
      },
      {
        "astId": 330,
        "contract": "contracts/Mintpeg.sol:Mintpeg",
        "label": "_name",
        "offset": 0,
        "slot": "101",
        "type": "t_string_storage"
      },
      {
        "astId": 332,
        "contract": "contracts/Mintpeg.sol:Mintpeg",
        "label": "_symbol",
        "offset": 0,
        "slot": "102",
        "type": "t_string_storage"
      },
      {
        "astId": 336,
        "contract": "contracts/Mintpeg.sol:Mintpeg",
        "label": "_owners",
        "offset": 0,
        "slot": "103",
        "type": "t_mapping(t_uint256,t_address)"
      },
      {
        "astId": 340,
        "contract": "contracts/Mintpeg.sol:Mintpeg",
        "label": "_balances",
        "offset": 0,
        "slot": "104",
        "type": "t_mapping(t_address,t_uint256)"
      },
      {
        "astId": 344,
        "contract": "contracts/Mintpeg.sol:Mintpeg",
        "label": "_tokenApprovals",
        "offset": 0,
        "slot": "105",
        "type": "t_mapping(t_uint256,t_address)"
      },
      {
        "astId": 350,
        "contract": "contracts/Mintpeg.sol:Mintpeg",
        "label": "_operatorApprovals",
        "offset": 0,
        "slot": "106",
        "type": "t_mapping(t_address,t_mapping(t_address,t_bool))"
      },
      {
        "astId": 1192,
        "contract": "contracts/Mintpeg.sol:Mintpeg",
        "label": "__gap",
        "offset": 0,
        "slot": "107",
        "type": "t_array(t_uint256)44_storage"
      },
      {
        "astId": 1355,
        "contract": "contracts/Mintpeg.sol:Mintpeg",
        "label": "_tokenURIs",
        "offset": 0,
        "slot": "151",
        "type": "t_mapping(t_uint256,t_string_storage)"
      },
      {
        "astId": 1471,
        "contract": "contracts/Mintpeg.sol:Mintpeg",
        "label": "__gap",
        "offset": 0,
        "slot": "152",
        "type": "t_array(t_uint256)49_storage"
      },
      {
        "astId": 1531,
        "contract": "contracts/Mintpeg.sol:Mintpeg",
        "label": "_defaultRoyaltyInfo",
        "offset": 0,
        "slot": "201",
        "type": "t_struct(RoyaltyInfo)1528_storage"
      },
      {
        "astId": 1536,
        "contract": "contracts/Mintpeg.sol:Mintpeg",
        "label": "_tokenRoyaltyInfo",
        "offset": 0,
        "slot": "202",
        "type": "t_mapping(t_uint256,t_struct(RoyaltyInfo)1528_storage)"
      },
      {
        "astId": 1716,
        "contract": "contracts/Mintpeg.sol:Mintpeg",
        "label": "__gap",
        "offset": 0,
        "slot": "203",
        "type": "t_array(t_uint256)48_storage"
      },
      {
        "astId": 10,
        "contract": "contracts/Mintpeg.sol:Mintpeg",
        "label": "_owner",
        "offset": 0,
        "slot": "251",
        "type": "t_address"
      },
      {
        "astId": 130,
        "contract": "contracts/Mintpeg.sol:Mintpeg",
        "label": "__gap",
        "offset": 0,
        "slot": "252",
        "type": "t_array(t_uint256)49_storage"
      },
      {
        "astId": 2594,
        "contract": "contracts/Mintpeg.sol:Mintpeg",
        "label": "_tokenIds",
        "offset": 0,
        "slot": "301",
        "type": "t_struct(Counter)2505_storage"
      }
    ],
    "types": {
      "t_address": {
        "encoding": "inplace",
        "label": "address",
        "numberOfBytes": "20"
      },
      "t_array(t_uint256)44_storage": {
        "base": "t_uint256",
        "encoding": "inplace",
        "label": "uint256[44]",
        "numberOfBytes": "1408"
      },
      "t_array(t_uint256)48_storage": {
        "base": "t_uint256",
        "encoding": "inplace",
        "label": "uint256[48]",
        "numberOfBytes": "1536"
      },
      "t_array(t_uint256)49_storage": {
        "base": "t_uint256",
        "encoding": "inplace",
        "label": "uint256[49]",
        "numberOfBytes": "1568"
      },
      "t_array(t_uint256)50_storage": {
        "base": "t_uint256",
        "encoding": "inplace",
        "label": "uint256[50]",
        "numberOfBytes": "1600"
      },
      "t_bool": {
        "encoding": "inplace",
        "label": "bool",
        "numberOfBytes": "1"
      },
      "t_mapping(t_address,t_bool)": {
        "encoding": "mapping",
        "key": "t_address",
        "label": "mapping(address => bool)",
        "numberOfBytes": "32",
        "value": "t_bool"
      },
      "t_mapping(t_address,t_mapping(t_address,t_bool))": {
        "encoding": "mapping",
        "key": "t_address",
        "label": "mapping(address => mapping(address => bool))",
        "numberOfBytes": "32",
        "value": "t_mapping(t_address,t_bool)"
      },
      "t_mapping(t_address,t_uint256)": {
        "encoding": "mapping",
        "key": "t_address",
        "label": "mapping(address => uint256)",
        "numberOfBytes": "32",
        "value": "t_uint256"
      },
      "t_mapping(t_uint256,t_address)": {
        "encoding": "mapping",
        "key": "t_uint256",
        "label": "mapping(uint256 => address)",
        "numberOfBytes": "32",
        "value": "t_address"
      },
      "t_mapping(t_uint256,t_string_storage)": {
        "encoding": "mapping",
        "key": "t_uint256",
        "label": "mapping(uint256 => string)",
        "numberOfBytes": "32",
        "value": "t_string_storage"
      },
      "t_mapping(t_uint256,t_struct(RoyaltyInfo)1528_storage)": {
        "encoding": "mapping",
        "key": "t_uint256",
        "label": "mapping(uint256 => struct ERC2981Upgradeable.RoyaltyInfo)",
        "numberOfBytes": "32",
        "value": "t_struct(RoyaltyInfo)1528_storage"
      },
      "t_string_storage": {
        "encoding": "bytes",
        "label": "string",
        "numberOfBytes": "32"
      },
      "t_struct(Counter)2505_storage": {
        "encoding": "inplace",
        "label": "struct Counters.Counter",
        "members": [
          {
            "astId": 2504,
            "contract": "contracts/Mintpeg.sol:Mintpeg",
            "label": "_value",
            "offset": 0,
            "slot": "0",
            "type": "t_uint256"
          }
        ],
        "numberOfBytes": "32"
      },
      "t_struct(RoyaltyInfo)1528_storage": {
        "encoding": "inplace",
        "label": "struct ERC2981Upgradeable.RoyaltyInfo",
        "members": [
          {
            "astId": 1525,
            "contract": "contracts/Mintpeg.sol:Mintpeg",
            "label": "receiver",
            "offset": 0,
            "slot": "0",
            "type": "t_address"
          },
          {
            "astId": 1527,
            "contract": "contracts/Mintpeg.sol:Mintpeg",
            "label": "royaltyFraction",
            "offset": 20,
            "slot": "0",
            "type": "t_uint96"
          }
        ],
        "numberOfBytes": "32"
      },
      "t_uint256": {
        "encoding": "inplace",
        "label": "uint256",
        "numberOfBytes": "32"
      },
      "t_uint8": {
        "encoding": "inplace",
        "label": "uint8",
        "numberOfBytes": "1"
      },
      "t_uint96": {
        "encoding": "inplace",
        "label": "uint96",
        "numberOfBytes": "12"
      }
    }
  }
}