{
  "address": "0x00dC6666d2e02f374C0d5F127c6B00F5CF8c8669",
  "abi": [
    {
      "inputs": [],
      "name": "MintpegFactory__InvalidMintpegImplementation",
      "type": "error"
    },
    {
      "anonymous": false,
      "inputs": [
        {
          "indexed": true,
          "internalType": "address",
          "name": "mintpeg",
          "type": "address"
        },
        {
          "indexed": false,
          "internalType": "string",
          "name": "name",
          "type": "string"
        },
        {
          "indexed": false,
          "internalType": "string",
          "name": "symbol",
          "type": "string"
        },
        {
          "indexed": true,
          "internalType": "address",
          "name": "projectOwner",
          "type": "address"
        },
        {
          "indexed": true,
          "internalType": "address",
          "name": "royaltyReceiver",
          "type": "address"
        },
        {
          "indexed": false,
          "internalType": "uint96",
          "name": "royaltyFee",
          "type": "uint96"
        }
      ],
      "name": "MintpegCreated",
      "type": "event"
    },
    {
      "anonymous": false,
      "inputs": [
        {
          "indexed": true,
          "internalType": "address",
          "name": "previousOwner",
          "type": "address"
        },
        {
          "indexed": true,
          "internalType": "address",
          "name": "newOwner",
          "type": "address"
        }
      ],
      "name": "OwnershipTransferred",
      "type": "event"
    },
    {
      "anonymous": false,
      "inputs": [
        {
          "indexed": true,
          "internalType": "address",
          "name": "mintpegImplementation",
          "type": "address"
        }
      ],
      "name": "SetMintpegImplementation",
      "type": "event"
    },
    {
      "inputs": [
        {
          "internalType": "uint256",
          "name": "",
          "type": "uint256"
        }
      ],
      "name": "allMintpegs",
      "outputs": [
        {
          "internalType": "address",
          "name": "",
          "type": "address"
        }
      ],
      "stateMutability": "view",
      "type": "function"
    },
    {
      "inputs": [
        {
          "internalType": "string",
          "name": "_name",
          "type": "string"
        },
        {
          "internalType": "string",
          "name": "_symbol",
          "type": "string"
        },
        {
          "internalType": "address",
          "name": "_royaltyReceiver",
          "type": "address"
        },
        {
          "internalType": "uint96",
          "name": "_feePercent",
          "type": "uint96"
        }
      ],
      "name": "createMintpeg",
      "outputs": [],
      "stateMutability": "nonpayable",
      "type": "function"
    },
    {
      "inputs": [
        {
          "internalType": "address",
          "name": "",
          "type": "address"
        },
        {
          "internalType": "uint256",
          "name": "",
          "type": "uint256"
        }
      ],
      "name": "createdMintpegs",
      "outputs": [
        {
          "internalType": "address",
          "name": "",
          "type": "address"
        }
      ],
      "stateMutability": "view",
      "type": "function"
    },
    {
      "inputs": [
        {
          "internalType": "address",
          "name": "_deployer",
          "type": "address"
        },
        {
          "internalType": "uint256",
          "name": "_createdMintpegIndex",
          "type": "uint256"
        }
      ],
      "name": "getMintpegCreatedAtIndex",
      "outputs": [
        {
          "internalType": "address",
          "name": "",
          "type": "address"
        }
      ],
      "stateMutability": "view",
      "type": "function"
    },
    {
      "inputs": [
        {
          "internalType": "address",
          "name": "_deployer",
          "type": "address"
        }
      ],
      "name": "getNumberOfMintpegsCreated",
      "outputs": [
        {
          "internalType": "uint256",
          "name": "",
          "type": "uint256"
        }
      ],
      "stateMutability": "view",
      "type": "function"
    },
    {
      "inputs": [],
      "name": "getTotalMintpegsCount",
      "outputs": [
        {
          "internalType": "uint256",
          "name": "",
          "type": "uint256"
        }
      ],
      "stateMutability": "view",
      "type": "function"
    },
    {
      "inputs": [],
      "name": "mintpegImplementation",
      "outputs": [
        {
          "internalType": "address",
          "name": "",
          "type": "address"
        }
      ],
      "stateMutability": "view",
      "type": "function"
    },
    {
      "inputs": [],
      "name": "owner",
      "outputs": [
        {
          "internalType": "address",
          "name": "",
          "type": "address"
        }
      ],
      "stateMutability": "view",
      "type": "function"
    },
    {
      "inputs": [],
      "name": "renounceOwnership",
      "outputs": [],
      "stateMutability": "nonpayable",
      "type": "function"
    },
    {
      "inputs": [
        {
          "internalType": "address",
          "name": "_mintpegImplementation",
          "type": "address"
        }
      ],
      "name": "setMintpegImplementation",
      "outputs": [],
      "stateMutability": "nonpayable",
      "type": "function"
    },
    {
      "inputs": [
        {
          "internalType": "address",
          "name": "newOwner",
          "type": "address"
        }
      ],
      "name": "transferOwnership",
      "outputs": [],
      "stateMutability": "nonpayable",
      "type": "function"
    }
  ],
  "transactionHash": "0x39566d1916687d63b047ab9f6184559f6359277f984bf58bd81b0695720ea4e3",
  "args": [],
  "numDeployments": 1,
  "solcInputHash": "93c17f3e8b4e3096401f4124de24db5e",
  "bytecode": "0x608060405234801561001057600080fd5b5061001a3361001f565b61006f565b600080546001600160a01b038381166001600160a01b0319831681178455604051919092169283917f8be0079c531659141344cd1fd0a4f28419497f9722a3daafe3b4186f6b6457e09190a35050565b6108cd8061007e6000396000f3fe608060405234801561001057600080fd5b50600436106100a95760003560e01c80638da5cb5b116100715780638da5cb5b1461013a578063a3ac26981461014b578063c4cb86871461015e578063e1769ca914610171578063f2fde38b14610184578063fcebe2f61461019757600080fd5b806305032ef6146100ae57806364f204a8146100ea578063715018a6146100ff57806378c017b3146101075780638b5c1c7b14610132575b600080fd5b6100d76100bc3660046106b6565b6001600160a01b031660009081526003602052604090205490565b6040519081526020015b60405180910390f35b6100fd6100f8366004610700565b6101aa565b005b6100fd610310565b61011a6101153660046106d7565b610324565b6040516001600160a01b0390911681526020016100e1565b6002546100d7565b6000546001600160a01b031661011a565b60015461011a906001600160a01b031681565b61011a61016c3660046106d7565b610378565b6100fd61017f3660046106b6565b6103b0565b6100fd6101923660046106b6565b610429565b61011a6101a536600461078f565b6104a7565b6001546001600160a01b03166101d35760405163f9c55d4960e01b815260040160405180910390fd5b6001546000906101eb906001600160a01b03166104d1565b60405163b7e31add60e01b81529091506001600160a01b0382169063b7e31add906102209088908890889088906004016107f2565b600060405180830381600087803b15801561023a57600080fd5b505af115801561024e573d6000803e3d6000fd5b50506002805460018181019092557f405787fa12a823e0f2b7631cc41b3ba8828b3321ca811111fa75cd3aa3bb5ace0180546001600160a01b038087166001600160a01b03199283168117909355336000818152600360209081526040808320805498890181558352912090950180549093168417909255925192881694509250907f8b789ba6704470f44c1d65439f507002a0000359cf01f1b2c9391c059a02e77190610301908a908a908990610842565b60405180910390a45050505050565b61031861056e565b61032260006105c8565b565b6001600160a01b038216600090815260036020526040812080548390811061035c57634e487b7160e01b600052603260045260246000fd5b6000918252602090912001546001600160a01b03169392505050565b6003602052816000526040600020818154811061039457600080fd5b6000918252602090912001546001600160a01b03169150829050565b6103b861056e565b6001600160a01b0381166103df5760405163f9c55d4960e01b815260040160405180910390fd5b600180546001600160a01b0319166001600160a01b0383169081179091556040517fb57500a193a7ac5e2c8f69a3a5409bb3cc80d7823d7206f4081639b966ea1b2c90600090a250565b61043161056e565b6001600160a01b03811661049b5760405162461bcd60e51b815260206004820152602660248201527f4f776e61626c653a206e6577206f776e657220697320746865207a65726f206160448201526564647265737360d01b60648201526084015b60405180910390fd5b6104a4816105c8565b50565b600281815481106104b757600080fd5b6000918252602090912001546001600160a01b0316905081565b6000604051733d602d80600a3d3981f3363d3d373d3d3d363d7360601b81528260601b60148201526e5af43d82803e903d91602b57fd5bf360881b60288201526037816000f09150506001600160a01b0381166105695760405162461bcd60e51b8152602060048201526016602482015275115490cc4c4d8dce8818dc99585d194819985a5b195960521b6044820152606401610492565b919050565b6000546001600160a01b031633146103225760405162461bcd60e51b815260206004820181905260248201527f4f776e61626c653a2063616c6c6572206973206e6f7420746865206f776e65726044820152606401610492565b600080546001600160a01b038381166001600160a01b0319831681178455604051919092169283917f8be0079c531659141344cd1fd0a4f28419497f9722a3daafe3b4186f6b6457e09190a35050565b80356001600160a01b038116811461056957600080fd5b600082601f83011261063f578081fd5b813567ffffffffffffffff8082111561065a5761065a610881565b604051601f8301601f19908116603f0116810190828211818310171561068257610682610881565b8160405283815286602085880101111561069a578485fd5b8360208701602083013792830160200193909352509392505050565b6000602082840312156106c7578081fd5b6106d082610618565b9392505050565b600080604083850312156106e9578081fd5b6106f283610618565b946020939093013593505050565b60008060008060808587031215610715578182fd5b843567ffffffffffffffff8082111561072c578384fd5b6107388883890161062f565b9550602087013591508082111561074d578384fd5b5061075a8782880161062f565b93505061076960408601610618565b915060608501356001600160601b0381168114610784578182fd5b939692955090935050565b6000602082840312156107a0578081fd5b5035919050565b60008151808452815b818110156107cc576020818501810151868301820152016107b0565b818111156107dd5782602083870101525b50601f01601f19169290920160200192915050565b60808152600061080560808301876107a7565b828103602084015261081781876107a7565b6001600160a01b0395909516604084015250506001600160601b039190911660609091015292915050565b60608152600061085560608301866107a7565b828103602084015261086781866107a7565b9150506001600160601b0383166040830152949350505050565b634e487b7160e01b600052604160045260246000fdfea26469706673582212209d6688edc34cb758decd63f78b14782952ea7b0c830e147204680c7ee1efaa1464736f6c63430008040033",
  "devdoc": {
    "author": "Trader Joe",
    "events": {
      "MintpegCreated(address,string,string,address,address,uint96)": {
        "params": {
          "mintpeg": "Address of deployed mintpeg",
          "name": "Mintpeg (ERC721) name",
          "projectOwner": "The project owner",
          "royaltyFee": "Royalty fee numerator",
          "royaltyReceiver": "Royalty fee collector",
          "symbol": "Mintpeg (ERC721) symbol"
        }
      },
      "SetMintpegImplementation(address)": {
        "params": {
          "mintpegImplementation": "implementation of mintpeg"
        }
      }
    },
    "kind": "dev",
    "methods": {
      "createMintpeg(string,string,address,uint96)": {
        "params": {
          "_feePercent": "Royalty fee numerator; denominator is 10,000. So 500 represents 5%",
          "_name": "ERC721 name",
          "_royaltyReceiver": "Royalty fee collector",
          "_symbol": "ERC721 symbol"
        }
      },
      "getMintpegCreatedAtIndex(address,uint256)": {
        "details": "Should be used with getNumberOfMintpegsCreated() to prevent running into out-of-range index errors",
        "params": {
          "_createdMintpegIndex": "Index of Mintpeg to be returned",
          "_deployer": "Address of mintpeg(s) deployer"
        },
        "returns": {
          "_0": "address Address of the Mintpeg implementation at given index"
        }
      },
      "getNumberOfMintpegsCreated(address)": {
        "params": {
          "_deployer": "Address of mintpeg(s) deployer"
        }
      },
      "getTotalMintpegsCount()": {
        "returns": {
          "_0": "uint256 number of all mintpegs deployed"
        }
      },
      "owner()": {
        "details": "Returns the address of the current owner."
      },
      "renounceOwnership()": {
        "details": "Leaves the contract without owner. It will not be possible to call `onlyOwner` functions anymore. Can only be called by the current owner. NOTE: Renouncing ownership will leave the contract without an owner, thereby removing any functionality that is only available to the owner."
      },
      "setMintpegImplementation(address)": {
        "params": {
          "_mintpegImplementation": "New mintpegImplementation"
        }
      },
      "transferOwnership(address)": {
        "details": "Transfers ownership of the contract to a new account (`newOwner`). Can only be called by the current owner."
      }
    },
    "title": "Mintpeg Factory",
    "version": 1
  },
  "userdoc": {
    "events": {
      "MintpegCreated(address,string,string,address,address,uint96)": {
        "notice": "Emitted on createMintpeg()"
      },
      "SetMintpegImplementation(address)": {
        "notice": "Emmited on setMintpegImplementation()"
      }
    },
    "kind": "user",
    "methods": {
      "allMintpegs(uint256)": {
        "notice": "Array of all deployed mintpeg addresses"
      },
      "createMintpeg(string,string,address,uint96)": {
        "notice": "Function for creating mintpegs"
      },
      "createdMintpegs(address,uint256)": {
        "notice": "Mapping of adresses (deployer) to created mintpegs"
      },
      "getMintpegCreatedAtIndex(address,uint256)": {
        "notice": "Function to get address of deployed mintpeg at given index"
      },
      "getNumberOfMintpegsCreated(address)": {
        "notice": "Function to get number of mintpegs deployed by an address"
      },
      "getTotalMintpegsCount()": {
        "notice": "Function to get number of mintpegs deployed"
      },
      "mintpegImplementation()": {
        "notice": "Mintpeg contract to be cloned"
      },
      "setMintpegImplementation(address)": {
        "notice": "Set address for mintpegImplementation"
      }
    },
    "notice": "Factory that creates Mintpeg contracts",
    "version": 1
  },
  "storageLayout": {
    "storage": [
      {
        "astId": 2292,
        "contract": "contracts/MintpegFactory.sol:MintpegFactory",
        "label": "_owner",
        "offset": 0,
        "slot": "0",
        "type": "t_address"
      },
      {
        "astId": 2869,
        "contract": "contracts/MintpegFactory.sol:MintpegFactory",
        "label": "mintpegImplementation",
        "offset": 0,
        "slot": "1",
        "type": "t_address"
      },
      {
        "astId": 2873,
        "contract": "contracts/MintpegFactory.sol:MintpegFactory",
        "label": "allMintpegs",
        "offset": 0,
        "slot": "2",
        "type": "t_array(t_address)dyn_storage"
      },
      {
        "astId": 2879,
        "contract": "contracts/MintpegFactory.sol:MintpegFactory",
        "label": "createdMintpegs",
        "offset": 0,
        "slot": "3",
        "type": "t_mapping(t_address,t_array(t_address)dyn_storage)"
      }
    ],
    "types": {
      "t_address": {
        "encoding": "inplace",
        "label": "address",
        "numberOfBytes": "20"
      },
      "t_array(t_address)dyn_storage": {
        "base": "t_address",
        "encoding": "dynamic_array",
        "label": "address[]",
        "numberOfBytes": "32"
      },
      "t_mapping(t_address,t_array(t_address)dyn_storage)": {
        "encoding": "mapping",
        "key": "t_address",
        "label": "mapping(address => address[])",
        "numberOfBytes": "32",
        "value": "t_array(t_address)dyn_storage"
      }
    }
  }
}